:02000000ff00ff
:080002004c6174746963650030
:17000a00694345637562653220323032302e31322e32373934330071
:14002100506172743a20694345354c50344b2d534734380066
:1b003500446174653a204a756c20313020323032332031343a32313a32340083
:0200500000ffaf
:040052007eaa997e6b
:02005600510057
:020058000105a0
:03005a00920020f1
:03005d006202b389
:030060007200b07b
:0300630082000018
:02006600110087
:02006800010194
:20006a00000000000000000000000010000000000000400000000000010000000000000421
:20008a0000000001400010000040000000001000000000000000000000400001000e000066
:1600aa0000000000000004000000000000100000000000004000ec
:2000c0000000000000000000000000020000000000000800000000000020000000000000f6
:2000e00080000000020000000000000000000000000000000000000000000000000020005e
:1701000000000000000000800000000000020000000000000800005e
:200117000000000000000000000000000000000000000000000000000000000000000000c8
:2001370000000000000000000040000000001000000000000000000000000001001c00003b
:160157000000000000000000000000000000000000000000000092
:20016d00000000000000000000000000000000000000000000000000000000000000000072
:20018d000000000000000000000000300000000000000000000000000040000000020000e0
:1701ad0000000000000000000000000000000000000000002000001b
:2001c40000000000000000000000000000000000000000000000000000000000000000001b
:2001e400000000000000000000800000010020000001400000000000000000020000000c0b
:1602040000000000000000000000000000000000000000000000e4
:20021a000000000000000000000000000000000000000000000000000000000000000000c4
:20023a000000000000000000000000500050000000001c00000000000000000000000003e5
:17025a0040000000000000000000000000000000000000000000004d
:2002710000000000000000000000000000000000000000000000000000000000000000006d
:200291000000000040000000000000000000000020000000000000000000000000040000e9
:1602b1000000000000000000000000000000000000000000000037
:2002c700000000000000000000000000000000000000000000000000000000000000000017
:2002e7000000000020000000000000000000000006000000000000000000000000020000cf
:170307000000000000000000000000000000000000000000000000df
:20031e000000000000000000000000000000000000000000000000000000000000000000bf
:20033e0000000000000000000000000200000000e080000000000000000000000000080035
:16035e000000000000000000000000000000000000000000000089
:20037400000000000000000000000000000000000000000000000000000000000000000069
:20039400000000000000000000000000000000000000000000000000000000000000000049
:1703b400000000000000000000000000000000000000000000000032
:2003cb00000000000000000000000000000000000000000000000000000000000000000012
:2003eb00000000000001c000000000800d000000c003400000000700050000000000001c79
:16040b0000000000000000000000000000000000000000000000db
:200421000000000000000000000000000000000000000000000000000000000000000000bb
:200441000000010000001c0000040038007001000000040000040080001000001000000128
:17046100c000000000000000000000000000000000000000000000c4
:20047800000000000000000000000000000000000000000000000000000000000000000064
:200498000000000000000000000000000000000060000000000000000000000000200000c4
:1604b800000000000000000000000000000000000000000000002e
:2004ce0000000000000000000000000000000000000000000000000000000000000000000e
:2004ee00000001000000000000040000000001000200000000040000000000001000400092
:17050e000000000000000000000000000000000000000000000000d6
:200525000000000000000000000000000000000000000000000000000000000000000000b6
:2005450000000000004000000000050100000000004000000000008100000000000004008b
:160565000000000000000000000000000000000000000000000080
:20057b00000000000000000000000000000000000000000000000000000000000000000060
:20059b000000020000000000000800000000020000000000000800180000000020000000f4
:1705bb00000000000000000000000000000000000000000000000029
:2005d200000000000c30200000000000000000000000000000000000000000000000000f9e
:2005f200f400000000000000000000000000000000003fd00000000000ff400000000000a7
:1606120000000000000000000000000000000000000000000000d2
:200628000000000000c30000000000000000000000000000000000000000000000000000ef
:20064800ff000000000000000000000000000000000003fc00000000000ff0000000000095
:1706680000000000000000000000000000000000000000000000007b
:20067f00000000000c30200000000000000000000000000000000000000000a0000000005f
:20069f000000000000000000000000000002800000003fd00a00000000ff40000000000061
:1606bf000000000000000000000000000000000000000000000025
:2006d5000000000000c30000000000000000000000000000000000000000000a0000000038
:2006f50000000000000000000000000000000800000003fc00200000000ff00000000000bf
:170715000000000000000000000000000000000000000000000000cd
:20072c00000000000c30200000000000000000000000000000000000000000000000000051
:20074c000000000000000000000000000000000000003fd00000000000ff4000000000003f
:16076c000000000000000000000000000000000000000000000077
:200782000000000000c3000000000000000000000000000000000000000000000000000094
:2007a20000000000000000000000000000000000000003fc00000000000ff0000000000039
:1707c200000000000000000000000000000000000000000000000020
:2007d900000000000c302000000000000000000000000000000000000000000000000000a4
:2007f9000000000000000000000000000000000000003fd0000000000000000000000000d1
:1608190000000000000000000000000000000000000000000000c9
:20082f000000000000c30000000000000000000000000000000000000000000000000000e6
:20084f0000000000000000000000000000000000000003fc0000000000000000000000008a
:17086f00000000000000000000000000000000000000000000000072
:20088600000000000c302000000000000000000000000000000000000000000000000000f6
:2008a600000000000000000000000000000000000000000000002000000000000000000012
:1608c600000000000000000000000000000000000000000000001c
:2008dc000000000000c3000000000000000000000000000000000000000000000000000039
:2008fc000000000000000000000000000000001890000000000002c0000000000000000072
:17091c000000000000000000000000000000000000000000000000c4
:20093300000000000c30200000000000000000000000000000000000000000000000000048
:20095300000000000000000000000000000000000000000000000000000000000000000084
:16097300000000000000000000000000000000000000000000006e
:200989000000000000c300000000000000000000000000000000000000000000000000008b
:2009a90000000000000000000000000000000000000000000000000000000000000000002e
:1709c900000000000000000000000000000000000000000000000017
:2009e000000000000c302000000000000000000000000000000000000000000000e00000bb
:200a00000000000000000000000000000000000000000000000000000000000000000000d6
:160a200000000000000000000000000000000000000000000000c0
:200a36000000000000c30000000000000000000000000000000000000000000000000000dd
:200a5600000000000000000000000000000000000000000000000000000000000000000080
:170a7600000000000000000000000000000000000000000000000069
:200a8d00000000000c302000000000000000000000000000000000000000000000000000ed
:200aad00000000000000000000000000000000000000000000000000000000000000000029
:160acd000000000000000000000000000000000000000000000013
:200ae3000000000000c3000000000000000000000000000000000000000000000000000030
:200b03000000000000000000000000000000000000000000000000000000000000000000d2
:170b23000000000000000000000000000000000000000000000000bb
:200b3a00000000000c3020000000000000000000000000000000000000000000000000003f
:200b5a00000000000000000000a000000000000000000000000000000000000004000000d7
:160b7a000000000000000000000000000000000000000000000065
:200b90000000000000c3000000000000000000000000000000000000000000000000000082
:200bb000000000000000000000000000000000000000000000000000000000000020000005
:170bd00000000000000000000000000000000000000000000000000e
:200be700000000000c30200000000000000000000000000000000000000000000000000092
:200c07000000000000000000000000000000000000000000000000000000000000000000cd
:160c270000000000000000000000000000000000000000000000b7
:200c3d000000000000c30000000000000000000000000000000000000000000000000000d4
:200c5d00000000000000000000000000000000000000000000000000000000000000000077
:170c7d00000000000000000000000000000000000000000000000060
:200c9400000000000c302000000000000000000000000000000000000000000000000000e4
:200cb400000000000000000000000000000000000000000000000000000000000000000020
:160cd400000000000000000000000000000000000000000000000a
:200cea000000000000c3000000000000000000000000000000000000000000000000000027
:200d0a000000000000000000000000000000000000000000000000000000000000000000c9
:170d2a000000000000000000000000000000000000000000000000b2
:200d4100000000000c30200000000000000000000000000000000000000000000000000036
:200d6100000000000000000000000000000000000000000000000000000000000000000072
:160d8100000000000000000000000000000000000000000000005c
:200d97000000000000c3000000000000000000000000000000000000000000000000000079
:200db70000000000000000000000000000000000000000000000000000000000000000001c
:170dd700000000000000000000000000000000000000000000000005
:200dee00000000000c30200000000000000000000000000000000000000000000000000089
:200e0e000000000000000000000000000000000000000000000000000000000000000000c4
:160e2e0000000000000000000000000000000000000000000000ae
:200e44000000000000c30000000000000000000000000000000000000000000000000000cb
:200e640000000000000000000000000000000000000000000000000000000000000000006e
:170e8400000000000000000000000000000000000000000000000057
:200e9b00000000000c302000000000000000000000000000000000000000000000000000db
:200ebb00000000000000000000000000000000000000000000000000000000000000000017
:160edb000000000000000000000000000000000000000000000001
:200ef1000000000000c300000000000000000000000000000000000000000000000000001e
:200f11000000000000000000000000000000000000000000000000000000000000000000c0
:170f31000000000000000000000000000000000000000000000000a9
:200f4800000000000c3020000000000000000000000000000000000000000000000000002d
:200f6800000000000000000000000000000000000000000000000000000000000000000069
:160f88000000000000000000000000000000000000000000000053
:200f9e000000000000c3000000000000000000000000000000000000000000000000000070
:200fbe00000000000000000000000000000000000000000000000000000000000000000013
:170fde000000000000000000000000000000000000000000000000fc
:200ff500000000000c30200000000000000000000000000000000000000000000000000080
:201015000000000000000000000000000000000000000000000000000000000000000000bb
:1610350000000000000000000000000000000000000000000000a5
:20104b000000000000c30000000000000000000000000000000000000000000000000000c2
:20106b00000000000000000000000000000000000000000000000000000000000000000065
:17108b0000000000000000000000000000000000000000000000004e
:2010a200000000000c302000000000000000000000000000000000000000000000000000d2
:2010c20000000000000000000000000000000000000000000000000000000000000000000e
:1610e20000000000000000000000000000000000000000000000f8
:2010f8000000000000c300000000000000000000000000000000000000000000080000000d
:201118000000000000000000000000000000000000000000000000000000000000000000b7
:171138000000000000000000000000000000000000000000000000a0
:20114f00000000000c30200000000000000000000000000000000000000000000000000024
:20116f0000000000000000000000000000000000000000000002000000000000000000005e
:16118f00000000000000000000000000000000000000000000004a
:2011a5000000000000c3000000000000000000000000000000000000000000000000000067
:2011c50000000000000000000000000000000000000000000000000000000000000000000a
:1711e5000000000000000000000000000000000000000000000000f3
:2011fc00000000000c30200000000000000000000000000000000000000000000000000077
:20121c000000000000000000000000000000000000000000000000000000000000000000b2
:16123c00000000000000000000000000000000000000000000009c
:201252000000000000c30000000000000000000000000000000000000000000000000000b9
:2012720000000000000000000000000000000000000000000000000000000000000000005c
:17129200000000000000000000000000000000000000000000000045
:2012a900000000000c302000000000000000000000000000000000000000000000000000c9
:2012c900000000000000000000000000000000000000000000000000000000000000000005
:1612e90000000000000000000000000000000000400000000000af
:2012ff000000000000c300000000000000000000000000000000000000000000000000000c
:20131f000000000000000000000000000000000000000000000000000000000000000000ae
:17133f0000000000000000000000000000000000080000000000008f
:20135600000000000c3020000000000000000000000000000000000000000000000000001b
:20137600000000000000000000000000000000000000000000010000000000000000000056
:161396000000000000000000000000000000000000000000000041
:2013ac000000000000c300000000000000000000000000000000000000000000000000005e
:2013cc00000000000000000000000000000000000000000000000000000000000000000001
:1713ec000000000000000000000000000000000000000000000000ea
:20140300000000000c3020000000000000000000000000000000000000000000000000006d
:201423000000000000000000000000000000000000000000000000000000000000000000a9
:161443000000000000000000000000000000000000000000000093
:201459000000000000c30000000000000000000000000000000000000000000000000000b0
:20147900000000000000000000000000000000000000000000000000000000000000000053
:1714990000000000000000000000000000000000000000000000003c
:2014b000000000000c302000000000000000000000000000000000000000000000000000c0
:2014d0000000000000000000000000000000000000000000000000000000000000000000fc
:1614f00000000000000000000000000000000000000000000000e6
:201506000000000000c3000000000000000000000000000000000000000000000000000002
:201526000000000000000000000000000000000000000000000000000000000000000000a5
:1715460000000000000000000000000000000000000000000000008e
:20155d00000000000c30200000000000000000000000000000000000000000000000000012
:20157d0000000000000000000000000000000000000000000000000000000000000000004e
:16159d000000000000000000000000000000000000000000000038
:2015b3000000000000c3000000000000000000000000000000000000000000000000000055
:2015d3000000000000000000000000000000000000000000000000000000000000000000f8
:1715f3000000000000000000000000000000000000000000000000e1
:20160a00000000000c30200000000000000000000000000000000000000000000000000064
:20162a000000000000000000000000000000000000000000000000000000000000000000a0
:16164a00000000000000000000000000000000000000000000008a
:201660000000000000c30000000000000000000000000000000000000000000000000000a7
:201680000000000000000000000000000000000000000000000020000000000000800000aa
:1716a000000000000000000000000000000000000000000000000033
:2016b700000000000c302000000000000000000000000000000000000000000000000000b7
:2016d7000000000000000000000000000000000000000000000000000000000000000000f3
:1616f70000000000000000000000000000000000000000000000dd
:20170d000000000000c30000000000000000000000000000000000000000000000000000f9
:20172d0000000000000000000000000000000000000000000000000000000000000000009c
:17174d00000000000000000000000000000000000000000000000085
:20176400000000000c30200000000000000000000000000000000000000000000000000009
:20178400000000000000000000000000000000000000000000000000000000000000000045
:1617a400000000000000000000000000000000000000000000002f
:2017ba000000000000c300000000000000000000000000000000000000000000000000004c
:2017da000000000000000000000000000000000000000000000000000000000000000000ef
:1717fa000000000000000000000000000000000000000000000000d8
:20181100000000000c3020000000000000000000000000000000000000000000000000005b
:20183100000000000000000000000000000000000000000000000000000000000000000097
:161851000000000000000000000000000000000000000000000081
:201867000000000000c300000000000000000000000000000000000000000000000000009e
:20188700000000000000000000000000000000000000000000000000000000000000000041
:1718a70000000000000000000000000000000000000000000000002a
:2018be00000000000c302000000000000000000000000000000000000000000000000000ae
:2018de000000000000000000000000000000000000000000000000000000000000000000ea
:1618fe0000000000000000000000000000000000a0000000000034
:201914000000000000c30000000000000000000000000000000000000000000000000000f0
:20193400000000000000000000000000000000000000000000000000000000000000000093
:1719540000000000000000000000000000000000000000000000007c
:20196b00000000000c30200000000000000000000000000000000000000000000000000000
:20198b0000000000000000000000000000000000000000000000000000000000000000003c
:1619ab0000000000000000000000000000000000008000000000a6
:2019c1000000000000c3000000000000000000000000000000000000000000000000000043
:2019e1000000000000000000000000000000000000000000000000000000000000000000e6
:171a01000000000000000000000000000000000000140000000000ba
:201a1800000000000c30200000000000000000000000000000000000000000000000000052
:201a380000000000000000000000000000000000000000000000000000000000000000008e
:161a58000000000000000000000000000000000000000000000078
:201a6e000000000000c3000000000000000000000000000000000000000000000000000095
:201a8e00000000000000000000000000000000000000000000000000000000000000000038
:171aae00000000000000000000000000000000000000000000000021
:201ac500000000000c302000000000000000000000000000000000000000000000000000a5
:201ae5000000000000000000000000000000000000000000000000000000000000000000e1
:161b050000000000000000000000000000000000000000000000ca
:201b1b000000000000c30000000000000000000000000000000000000000000000000000e7
:201b3b0000000000000000000000000000000000000000000000000000000000000000008a
:171b5b00000000000000000000000000000000000000000000000073
:201b7200000000000000000000000000000000000000000000000000000000000000000053
:201b9200000000000000000000000000000000000000000000000000000000000000000033
:161bb200000000000000000000000000000000000000000000001d
:201bc8000000000000000000000000000000000000000000000000000000000000000000fd
:201be8000000000000000000000000000000000000000000000000000000000000000000dd
:171c08000000000000000000000000000000000000000000000000c5
:201c1f000000000000000000000000000000000000000000000000000000000000000000a5
:201c3f00000000000000000000000000000000000000000000000000000000000000000085
:161c5f00000000000000000000000000000000000000000000006f
:201c750000000000000000000000000000000000000000000000000000000000000000004f
:201c950000000000000000000000000000000000000000000000000000000000000000002f
:171cb500000000000000000000000000000000000000000000000018
:201ccc000000000000000000000000000000000000000000000000000000000000000000f8
:201cec000000000000000000000000000000000000000000000000000000000000000000d8
:161d0c0000000000000000000000000000000000000000000000c1
:201d22000000000000000000000000000000000000000000000000000000000000000000a1
:201d4200000000000000000000000000000000000000000000000000000000000000000081
:171d620000000000000000000000000000000000000000000000006a
:201d790000000000000000000000000000000000000000000000000000000000000000004a
:201d990000000000000000000000000000000000000000000000000000000000000000002a
:161db9000000000000000000000000000000000000000000000014
:201dcf000000000000000000000000000000000000000000000000000000000000000000f4
:201def000000000000000000000000000000000000000000000000000000000000000000d4
:171e0f000000000000000000000000000000000000000000000000bc
:201e260000000000000000000000000000000000000000000000000000000000000000009c
:201e460000000000000000000000000000000000000000000000000000000000000000007c
:161e66000000000000000000000000000000000000000000000066
:201e7c00000000000000000000000000000000000000000000000000000000000000000046
:201e9c00000000000000000000000000000000000000000000000000000000000000000026
:171ebc0000000000000000000000000000000000010000000000000e
:201ed3000000000000000000000000000000000000000000000000000000000000000000ef
:201ef3000000000000000000000000000000000000000000000000000000000000000000cf
:161f130000000000000000000000000000000000000000000000b8
:201f2900000000000000000000000000000000000000000000000000000000000000000098
:201f4900000000000000000000000000000000000000000000000000000000000000000078
:171f69000000000000000000000080000000000000000000000000e1
:201f8000000000000000000000000000000000000000000000000000000000000000000041
:201fa0000000000000000000000000000000004000000000000000000000000000000000e1
:161fc000000000000000000000000000000000000000000000000b
:201fd6000000000000000000000000000000000000000000000000000000000000000000eb
:201ff6000000000000000000000000000000000000000000000000000000000000000000cb
:172016000000000000000000000000000000000000000000000000b3
:20202d00000000000000000000000000000000000000000000000000000000000000000093
:20204d00000000000000000000000000000000000000000000000000000000000000000073
:16206d00000000000000000000000000000000000000000000005d
:2020830000000000000000000000000000000000000000000000000000000000000000003d
:2020a30000000000000000000000000000000000000000000000000000000000000000001d
:1720c300000000000000000000000000000000000000000000000006
:2020da000000000000000000000000000000000000000000000000000000000000000000e6
:2020fa000000000000000000000000000000000000000000000000000000000000000000c6
:16211a0000000000000000000000000000000000000001eea00020
:2021300000000000000000000000000000000000000000000000000000000000000000008f
:2021500000000000000000000000000000000000000000000000000000000000000000006f
:1721700000000000000000000000000000000000000000030a01004a
:20218700000000000000000000000000000000000000000000000000000000000000000038
:2021a700000000000000000000000000000000000000000000000000000000000000000018
:1621c700000000000000000000000000000000000000000ca00056
:2021dd000000000000000000000000000000000000000000000000000000000000000000e2
:2021fd000000000000000000000000000000000000000000000000000000000000000000c2
:17221d00000000000000000000000000000000000000001d05001078
:2022340000000000000000000000000000000000000000000000000000000000000000008a
:2022540000000000000000000000000000000000000000000000000000000000000000006a
:162274000000000000000000000000000000000000000000000054
:20228a00000000000000000000000000000000000000000000000000000000000000000034
:2022aa00000000000000000000008000000000000000000000000000000000000000000094
:1722ca000000000000000000000000000000000000000000000000fd
:2022e1000000000000000000000000000000000000000000000000000000000000000000dd
:202301000000000000000000000000000000000000000000000000000000000000000000bc
:16232100000000a0000000000000000000000000000038000000ce
:20233700000000000000000000000000000000000000000000000000000000000000000086
:20235700000000000000000000000000000000000000000000000000000000000000000066
:1723770000000000000000000000000000000000000004000000004b
:20238e0000000000000000000000000000000000000000000000000000000000000000002f
:2023ae0000000000000000000000000000000000000000000000000000000000000000000f
:1623ce0000000000000000000000000000000000000000000000f9
:2023e4000000000000000000000000000000000000000000000000000000000000000000d9
:202404000000000000000000000000000000000000000000000000000000000000000000b8
:17242400000000000000000000000000000000000001c3800000005d
:20243b00000000000000000000000000000000000000000000000000000000000000000081
:20245b00000000000000000000000000000000000000000000000000000000000000000061
:16247b0000000000000000000000000000000000000000daa000d1
:2024910000000000000000000000000000000000000000000000000000000000000000002b
:2024b10000000000000000000000000000000000000000000000000000000000000000000b
:1724d10000000000000000000000000000000000000000010a0010d9
:2024e8000000000000000000000000000000000000000000000000000000000000000000d4
:202508000000000000000000000000000000000000000000000000000000000000000000b3
:162528000000000000000000000000000000000000000400000099
:20253e0000000000000000000000000000000000000000000000000000000000000000007d
:20255e0000000000000000000000000000000000000000000000000000000000002000003d
:17257e00000000000000000000000000000000000001428000000083
:20259500000000000000000000000000000000000000000000000000000000000000000026
:2025b500000000000000000000000000000000000000000000000000000000000000000006
:1625d50000000000000000000000000000000000000000000000f0
:2025eb000000000000000000000000000000000000000000000000000000000000000000d0
:20260b000000000000000000000000000000000000000000000000000000000000000000af
:17262b00000000000000000000000000000000000000024000000056
:20264200000000000000000000000000000000000000000000000000000000000000000078
:20266200000000000000000000000000000040000000000000000000000000000000000018
:16268200000000000000000000000001062804000000000000000f
:20269800000000000000000000000000000000000000000000000000000000000000000022
:2026b8000000000000000000000000000000040000000000000000000000000000000000fe
:1726d800000000000000000000000000e901400000000000000000c1
:2026ef000000000000000000000000000000000000000000000000000000000000000000cb
:20270f000000000000000000000000000000000000000000000000000000000000000000aa
:16272f00000000000000000000000580000000000000000000000f
:20274500000000000000000000000000000000000000000000000000000000000000000074
:20276500000000000000000000000000000000000000000000000000000000000000000054
:17278500000000000000000000000008000000000000000000000035
:20279c0000000000000000000000000000000000000000000000000000000000000000001d
:2027bc000000000000000000000000000000000000000000000000000000000000000000fd
:1627dc0000000000000000000000000000000000000000000000e7
:2027f2000000000000000000000000000000000000000000000000000000000000000000c7
:202812000000000000000000000000000000000000000000000000000000000000000000a6
:1728320000000000000000000000000000000000000000000000008f
:2028490000000000000000000000000000000000000000000000000000000000000000006f
:2028690000000000000000000000000000000000000000000000000000000000000000004f
:162889000000000000000000000000000000000000000000000039
:20289f00000000000000000000000000000000000000000000000000000000000000000019
:2028bf000000000000000000000000000000000000000000000000000000000000000000f9
:1728df000000000000000000000000000000000000000000000000e2
:2028f6000000000000000000000000000000000000000000000000000000000000000000c2
:202916000000000000000000010000000000000000000000000000000000000000000000a0
:16293600000000000000000000000000000000000000000000008b
:20294c0000000000000000000000000000000000000000000000000000000000000000006b
:20296c0000000000000000000010000000000000000000000000000000000000000000003b
:17298c00000000000000000000000000000000000000000000000034
:2029a300000000000000000000000000000000000000000000000000000000000000000014
:2029c3000000000000000000000000000000000000000000000000000000000000000000f4
:1629e30000000000000000000000000000000000000000000000de
:2029f9000000000000000000000000000000000000000000000000000000000000000000be
:202a190000000000000000000000000000000000000000000000000000000000000000009d
:172a3900000000000000000000000000000000000000000000000086
:202a5000000000000000000000000000000000000000000000000000000000000000000066
:202a7000000000000000000000000000000000000000000000000000000000000000000046
:162a90000000000000000000000000000000000000000000000030
:202aa600000000000000000000000000000000000000000000000000000000000000000010
:202ac6000000000000000000000000000000000000000000000000000000000000000000f0
:172ae6000000000000000000000000000000000000000000000000d9
:202afd000000000000000000000000000000000000000000000000000000000000000000b9
:202b1d00000000000000000000000000000000000000000000000000000000000000000098
:162b3d000000000000000000000000000000000000000000000082
:202b5300000000000000000000000000000000000000000000000000000000000000000062
:202b7300000000000000000000000000000000000000000000000000000000000000000042
:172b930000000000000000000000000000000000000000000000002b
:202baa0000000000000000000000000000000000000000000000000000000000000000000b
:202bca000000000000000000000000000000000000000000000000000000000000000000eb
:162bea00000000000000000000000000000000000000000cf04099
:202c00000000000000000000000000000000000000000000000000000000000000000000b4
:202c2000000000000000000000000000000000000000000000000000000000000000000094
:172c400000000000000000000000000000000000000342000f0080a9
:202c570000000000000000000000000000000000000000000000000000000000000000005d
:202c770000000000000000000000000000000000000000000000000000000000000000003d
:162c97000000000000000000000000000000000200000040a54000
:202cad00000000000000000000000000000000000000000000000000000000000000000007
:202ccd000000000000000000000000000000000000000000000000000000000000000000e7
:172ced0000000000000000000000000000000000000000000a5080f6
:202d04000000000000000000000000000000000000000000000000000000000000000000af
:202d240000000000000000000000000000000000000000000000000000000000000000008f
:162d44000000000000000000000000000000000400000000000075
:202d5a00000000000000000000000000000000000000000000000000000000000000000059
:202d7a00000000000000000000000000000000000000000000000000000000000000000039
:172d9a000000000000000000000000000000000040000000000000e2
:202db100000000000000000000000000000000000000000000000000000000000000000002
:202dd1000000000000000000000000000000000000000000000000000000000000000000e2
:162df10000000000000000000000000000000000000000000000cc
:202e07000000000000000000000000000000000000000000000000000000000000000000ab
:202e270000000000000000000000000000000000000000000000000000000000000000008b
:172e4700000000000000000000000000000000000000000000000074
:202e5e00000000000000000000000000000000000000000000000000000000000000000054
:202e7e00000000000000000000000000000000000000000000000000000000000000000034
:162e9e0000000000000000000000000000000000001e0000000000
:202eb4000000000000000000000000000000000000000000000000000000000000000000fe
:202ed4000000000000000000000000000000000000000000000000000000000000000000de
:172ef4000000000000000000000000000000000000002000000000a7
:202f0b000000000000000000000000000000000000000000000000000000000000000000a6
:202f2b00000000000000000000000000000000000000000000000000000000000000000086
:162f4b000000000000000000000000000000000000000000000070
:202f6100000000000000000000000000000000000000000000000000000000000000000050
:202f8100000000000000000000000000000000000000000000000000000000000000000030
:172fa100000000000000000000000000000000000000000000000019
:202fb8000000000000000000000000000000000000000000000000000000000000000000f9
:202fd8000000000000000000000000000000000000000000000000000000000000000000d9
:162ff80000000000000000000000000000000000000000000000c3
:20300e000000000000000000000000000000000000000000000000000000000000000000a2
:20302e00000000000000000000000000000000000000000000000000000000000000000082
:17304e0000000000000000000000000000000000000000000000006b
:2030650000000000000000000000000000000000000000000000000000000000000000004b
:2030850000000000000000000000000000000000000000000000000000000000000000002b
:1630a5000000000000000000000000000000000000000000000015
:2030bb000000000000000000000000000000000000000000000000000000000000000000f5
:2030db000000000000000000000000000000000000000000000000000000000000000000d5
:1730fb000000000000000000000000000000000000000000000000be
:2031120000000000000000000000000000000000000000000000000000000000000000009d
:2031320000000000000000000000000000000000000000000000000000000000000000007d
:16315200000000000000000000000000000000000000040ef06005
:20316800000000000000000000000000000000000000000000000000000000000000000047
:20318800000000000000000000000000000000000000000000000000000000000000000027
:1731a80000000000000000000000000000000000000003410f0000bd
:2031bf000000000000000000000000000000000000000000000000000000000000000000f0
:2031df000000000000000000000000000000000000000000000000000000000000000000d0
:1631ff0000000000000000000000000000000002000000000000b8
:20321500000000000000000000000000000000000000000000000000000000000000000099
:20323500000000000000000000000000000000000000000000000000000000000000000079
:17325500000000000000000000000000000000000000000000000062
:20326c00000000000000000000000000000000000000000000000000000000000000000042
:20328c00000000000000000001000000000000000000000000000000000000000000000021
:1632ac000000000000000000000000000000000400000000000008
:2032c2000000000000000000000000000000000000000000000000000000000000000000ec
:2032e2000000000000000000000000000000000000000000000000000000000000000000cc
:17330200000000000000000000000000000000004000000000000074
:20331900000000000000000000000000000000000000000000000000000000000000000094
:20333900000000000000000000000000000000000000000000000000000000000000000074
:16335900000000000000000000000000000000000000000000005e
:20336f0000000000000000000000000000000000000000000000000000000000000000003e
:20338f0000000000000000000000000000000000000000000000000000000000000000001e
:1733af00000000000000000000000000000000000000000000000007
:2033c6000000000000000000000000000000000000000000000000000000000000000000e7
:2033e6000000000000000000000000000000000000000000000000000000000000000000c7
:1634060000000000000000000000000000000000000000000000b0
:20341c00000000000000000000000000000000000000000000000000000000000000000090
:20343c00000000000000000000000000000000000000000000000000000000000000000070
:17345c00000000000000000000000000000000000000000000000059
:20347300000000000000000000000000000000000000000000000000000000000000000039
:20349300000000000000000000000000000000000000000000000000000000000000000019
:1634b3000000000000000000000000000000000000000000000003
:2034c9000000000000000000000000000000000000000000000000000000000000000000e3
:2034e9000000000000000000000000000000000000000000000000000000000000000000c3
:173509000000000000000000000000000000000000000000000000ab
:2035200000000000000000000000000000000000000000000000000000000000000000008b
:2035400000000000000000000000000000000000000000000000000000000000000000006b
:163560000000000000000000000000000000000000000400000051
:20357600000000000000000000000000000000000000000000000000000000000000000035
:20359600000000000000000000000000000000000000000000000000000000000000000015
:1735b60000000000000000000000000000000000002003800000005b
:2035cd000000000000000000000000000000000000000000000000000000000000000000de
:2035ed000000000000000000000000000000000000000000000000000000000000000000be
:16360d0000000000000000000000000000000000000000000000a7
:20362300000000000000000000000000000000000000000000000000000000000000000087
:203b8b002000000000000000000000000000000000000000000000000000000000000000fa
:203bab000000000000000000000000000000000000000000000000000000000000000000fa
:173bcb000000000000000000000000000000000000000000000000e3
:023be2000000e1
:023be4001101cd
:023be6000101db
:203be800000000000000000000000010000000000000400000000000010000000000000468
:203c08000000000000001000000000000040000000001000000000000040000000000001fb
:163c28000000000000000400000000000010000000000000400032
:203c3e0000000000000000000000000200000000000008000000000000200000000000003c
:203c5e008000000000000200000000000008000000000200000000000008000000000000b2
:173c7e00200000000000008000000000000200000000000008000085
:203c950000000000000000000000000000000000000000000000000000000000000000000f
:203cb5000000000000000000000000000000000000000000004000000000000100000000ae
:163cd5000000000000000000000000000000000040000000000099
:203ceb000000000000000000000000000000000000000000000000000000000000000000b9
:203d0b00000000000000000000000000000000000000000000000000000000000000000098
:173d2b00000000000000000000000000000000000000000000000081
:203d4200000000000000000000000000000000000000000000000000000000000000000061
:203d6200000000000000000000000000000000000000000000000000000000000000000041
:163d8200000000000000000000000000000000000000000000002b
:203d980000000000000000000000000000000000000000000000000000000000000000000b
:203db8000000000000000000000000000000000000000000000000000000000000000100ea
:173dd8000000000000000000000000000000000000000000000000d4
:203def000000000000000000000000000000000000000000000000000000000000000000b4
:203e0f0000000000000000000000000000000000000000000040000100000000000004004e
:163e2f00000000000000000000000000000000000000110000006c
:203e450000000000000000000000000000000000000000000000000000000000000000005d
:203e650000000000000000000000000000000000000000000000000000000000000000003d
:173e8500000000000000000000000000000000000000000000000026
:203e9c00000000000000000000000000000000000000000000000000000000000000000006
:203ebc000000000000000000000000010000000000000000000000010000000000000400e0
:163edc0000000000000000000000000000000000000000000000d0
:203ef2000000000000000000000000000000000000000000000000000000000000000000b0
:203f120000000000000000000000000000000000000000000000000000000000000000008f
:173f3200000000000000000000000000000000000000000000000078
:203f4900000000000000000000000000000000000000000000000000000000000000000058
:203f6900000000000000000000000000000000000000000000000000000000000000000038
:163f89000000000000000000000000000000000000000000000022
:203f9f00000000000000000000000000000000000000000000000000000000000000000002
:203fbf000000000000000000000000000000000000000000000000000000000000000000e2
:173fdf000000000000000000000000000000000000000000000000cb
:203ff6000000000000000000000000000000000000000000000000000000000000000000ab
:2040160000000000000000000040000000000000000000000040000000000000000000000a
:164036000000000000000000000000000000000000000000000074
:20404c00000000000000000000000000000000000000000000000000000000000000000054
:20406c0000000000000000000004000000000000000000000004000000000000100001001b
:17408c0000000000000000000000000000000000000000000000001d
:2040a3000000000000000000000000000000000000000000000000000000000000000000fd
:2040c30000000000000000000040000100000000000000000000000000000000000000009c
:1640e30000000000000000000000000000000000000000000000c7
:2040f9000000000000000000000000000000000000000000000000000000000000000000a7
:20411900000000000000000000000000000000000000000000000000000000000000000086
:1741390000000000000000000000000000000000000000000000006f
:20415000000000000c30000000000000000000000000000000000000000000000000000013
:2041700000000000000000000000000000000000000000000000000000000000000000002f
:164190000000000000000000000000000000000000000000000019
:2041a6000000000000c3020000000000000000000000000000000000000000000000000034
:2041c6000000000000000000000000000000000000000000000000000000000000000000d9
:1741e6000000000000000000000000000000000000000000000000c2
:2041fd00000000000c30000000000000000000000000000000000000000000000000000066
:20421d00000000000000000000000000000000000000000000000000000000000000000081
:16423d00000000000000000000000000000000000000000000006b
:204253000000000000c3020000000000000000000000000000000000000000000000000086
:2042730000000000000000000000000000000000000000000000000000000000000000002b
:17429300000000000000000000000000000000000000000000000014
:2042aa00000000000c300000000000000000000000000000000000000000000000000000b8
:2042ca000000000000000000000000000000000000000000000000000000000000000000d4
:1642ea0000000000000000000000000000000000000000000000be
:204300000000000000c30200000000000000000000000000000000000000000000000000d8
:2043200000000000000000000000000000000000000000000000000000000000000000007d
:17434000000000000000000000000000000000000000000000000066
:20435700000000000c3000000000000000000000000000000000000000000000000000000a
:20437700000000000000000000000000000000000000000000000000000000000000000026
:164397000000000000000000000000000000000000000000000010
:2043ad000000000000c302000000000000000000000000000000000000000000000000002b
:2043cd000000000000000000000000000000000000000000000000000000000000000000d0
:1743ed000000000000000000000000000000000000000000000000b9
:20440400000000000c3000000000000000000000000000000000000000000000000000005c
:20442400000000000000000000000000000000000000000000000000000000000000000078
:164444000000000000000000000000000000000000000000000062
:20445a000000000000c302000000000000000000000000000000000000000000000000007d
:20447a00000000000000000000000000000000000000000000000000000000000000000022
:17449a0000000000000000000000000000000000000000000000000b
:2044b100000000000c300000000000000000000000000000000000000000000000000000af
:2044d1000000000000000000000000000000000000000000000000000000000000000000cb
:1644f10000000000000000000000000000000000000000000000b5
:204507000000000000c30200000000000000000000000000000000000000000000000000cf
:20452700000000000000000000000000000000000000000000000000000000000000000074
:1745470000000000000000000000000000000000000000000000005d
:20455e00000000000c30000000000000000000000000000000000000000000000000000001
:20457e0000000000000000000000000000000000000000000000000000000000000000001d
:16459e000000000000000000000000000000000000000000000007
:2045b4000000000000c3020000000000000000000000000000000000000000000000000022
:2045d4000000000000000000000000000000000000000000000000000000000000000000c7
:1745f4000000000000000000000000000000000000000000000000b0
:20460b00000000000c30000000000000000000000000000000000000000000000000000053
:20462b0000000000000000000000000000000000000000000000000000000000000000006f
:16464b000000000000000000000000000000000000000000000059
:204661000000000000c3020000000000000000000000000000000000000000000000000074
:20468100000000000000000000000000000000000000000000000000000000000000000019
:1746a100000000000000000000000000000000000000000000000002
:2046b800000000000c300000000000000000000000000000000000000000000000000000a6
:2046d8000000000000000000000000000000000000000000000000000000000000000000c2
:1646f80000000000000000000000000000000000000000000000ac
:20470e000000000000c30200000000000000000000000000000000000000000000000000c6
:20472e0000000000000000000000000000000000000000000000000000000000000000006b
:17474e00000000000000000000000000000000000000000000000054
:20476500000000000c300000000000000000000000000000000000000000000000000000f8
:20478500000000000000000000000000000000000000000000000000000000000000000014
:1647a50000000000000000000000000000000000000000000000fe
:2047bb000000000000c3020000000000000000000000000000000000000000000000000019
:2047db000000000000000000000000000000000000000000000000000000000000000000be
:1747fb000000000000000000000000000000000000000000000000a7
:20481200000000000c3000000000000000000000000000000000000000000000000000004a
:20483200000000000000000000000000000000000000000000000000000000000000000066
:164852000000000000000000000000000000000000000000000050
:204868000000000000c302000000000000000000000000000000000000000000000000006b
:20488800000000000000000000000000000000000000000000000000000000000000000010
:1748a8000000000000000000000000000000000000000000000000f9
:2048bf00000000000c3000000000000000000000000000000000000000000000000000009d
:2048df000000000000000000000000000000000000000000000000000000000000000000b9
:1648ff0000000000000000000000000000000000000000000000a3
:204915000000000000c30200000000000000000000000000000000000000000000000000bd
:20493500000000000000000000000000000000000000000000000000000000000000000062
:1749550000000000000000000000000000000000000000000000004b
:20496c00000000000c300000000000000000000000000000000000000000000000000000ef
:20498c0000000000000000000000000000000000000000000000000000000000000000000b
:1649ac0000000000000000000000000000000000000000000000f5
:2049c2000000000000c3020000000000000000000000000000000000000000000000000010
:2049e2000000000000000000000000000000000000000000000000000000000000000000b5
:174a020000000000000000000000000000000000000000000000009d
:204a1900000000000c30000000000000000000000000000000000000000000000000000041
:204a390000000000000000000000000000000000000000000000000000000000000000005d
:164a59000000000000000000000000000000000000000000000047
:204a6f000000000000c3020000000000000000000000000000000000000000000000000062
:204a8f00000000000000000000000000000000000000000000000000000000000000000007
:174aaf000000000000000000000000000000000000000000000000f0
:204ac600000000000c30000000000000000000000000000000000000000000000000000094
:204ae6000000000000000000000000000000000000000000000000000000000000000000b0
:164b06000000000000000000000000000000000000000000000099
:204b1c000000000000c30200000000000000000000000000000000000000000000000000b4
:204b3c00000000000000000000000000000000000000000000000000000000000000000059
:174b5c00000000000000000000000000000000000000000000000042
:204b7300000000000c300000000000000000000000000000000000000000000000000000e6
:204b9300000000000000000000000000000000000000000000000000000000000000000002
:164bb30000000000000000000000000000000000000000000000ec
:204bc9000000000000c3020000000000000000000000000000000000000000000000000007
:204be9000000000000000000000000000000000000000000000000000000000000000000ac
:174c0900000000000000000000000000000000000000000000000094
:204c2000000000000c30000000000000000000000000000000000000000000000000000038
:204c4000000000000000000000000000000000000000000000000000000000000000000054
:164c6000000000000000000000000000000000000000000000003e
:204c76000000000000c3020000000000000000000000000000000000000000000000000059
:204c96000000000000000000000000000000000000000000000000000000000000000000fe
:174cb6000000000000000000000000000000000000000000000000e7
:204ccd00000000000c3000000000000000000000000000000000000000000000000000008b
:204ced000000000000000000000000000000000000000000000000000000000000000000a7
:164d0d000000000000000000000000000000000000000000000090
:204d23000000000000c30200000000000000000000000000000000000000000000000000ab
:204d4300000000000000000000000000000000000000000000000000000000000000000050
:174d6300000000000000000000000000000000000000000000000039
:204d7a00000000000c300000000000000000000000000000000000000000000000000000dd
:204d9a000000000000000000000000000000000000000000000000000000000000000000f9
:164dba0000000000000000000000000000000000000000000000e3
:204dd0000000000000c30200000000000000000000000000000000000000000000000000fe
:204df0000000000000000000000000000000000000000000000000000000000000000000a3
:174e100000000000000000000000000000000000000000000000008b
:204e2700000000000c3000000000000000000000000000000000000000000000000000002f
:204e470000000000000000000000000000000000000000000000000000000000000000004b
:164e67000000000000000000000000000000000000000000000035
:204e7d000000000000c3020000000000000000000000000000000000000000000000000050
:204e9d000000000000000000000000000000000000000000000000000000000000000000f5
:174ebd000000000000000000000000000000000000000000000000de
:204ed400000000000c30000000000000000000000000000000000000000000000000000082
:204ef40000000000000000000000000000000000000000000000000000000000000000009e
:164f14000000000000000000000000000000000000000000000087
:204f2a000000000000c30200000000000000000000000000000000000000000000000000a2
:204f4a00000000000000000000000000000000000000000000000000000000000000000047
:174f6a00000000000000000000000000000000000000000000000030
:204f8100000000000c300000000000000000000000000000000000000000000000000000d4
:204fa1000000000000000000000000000000000000000000000000000000000000000000f0
:164fc10000000000000000000000000000000000000000000000da
:204fd7000000000000c30200000000000000000000000000000000000000000000000000f5
:204ff70000000000000000000000000000000000000000000000000000000000000000009a
:17501700000000000000000000000000000000000000000000000082
:20502e00000000000c30000000000000000000000000000000000000000000000000000026
:20504e00000000000000000000000000000000000000000000000000000000000000000042
:16506e00000000000000000000000000000000000000000000002c
:205084000000000000c3020000000000000000000000000000000000000000000000000047
:2050a4000000000000000000000000000000000000000000000000000000000000000000ec
:1750c4000000000000000000000000000000000000000000000000d5
:2050db00000000000c30000000000000000000000000000000000000000000000000000079
:2050fb00000000000000000000000000000000000000000000000000000000000000000095
:16511b00000000000000000000000000000000000000000000007e
:205131000000000000c3020000000000000000000000000000000000000000000000000099
:2051510000000000000000000000000000000000000000000000000000000000000000003e
:17517100000000000000000000000000000000000000000000000027
:20518800000000000c300000000000000000000000000000000000000000000000000000cb
:2051a8000000000000000000000000000000000000000000000000000000000000000000e7
:1651c80000000000000000000000000000000000000000000000d1
:2051de000000000000c30200000000000000000000000000000000000000000000000000ec
:2051fe00000000000000000000000000000000000000000000000000000000000000000091
:17521e00000000000000000000000000000000000000000000000079
:20523500000000000c3000000000000000000000000000000000000000000000000000001d
:20525500000000000000000000000000000000000000000000000000000000000000000039
:165275000000000000000000000000000000000000000000000023
:20528b000000000000c302000000000000000000000000000000000000000000000000003e
:2052ab000000000000000000000000000000000000000000000000000000000000000000e3
:1752cb000000000000000000000000000000000000000000000000cc
:2052e200000000000c30000000000000000000000000000000000000000000000000000070
:2053020000000000000000000000000000000000000000000000000000000000000000008b
:165322000000000000000000000000000000000000000000000075
:205338000000000000c3020000000000000000000000000000000000000000000000000090
:20535800000000000000000000000000000000000000000000000000000000000000000035
:1753780000000000000000000000000000000000000000000000001e
:20538f00000000000c300000000000000000000000000000000000000000000000000000c2
:2053af000000000000000000000000000000000000000000000000000000000000000000de
:1653cf00000000000000000000000000000000000a0000000000be
:2053e5000000000000c30200000000000000000000000000000000000000000000000000e3
:20540500000000000000000000000000000000000000000000000000000000000000000087
:17542500000000000000000000000000000000000000000000000070
:20543c00000000000c30000000000000000000000000000000000000000000000000000014
:20545c00000000000000000000000000000000000000000000000000000000000000000030
:16547c00000000000000000000000000000000000000000000001a
:205492000000000000c3020000000000000000000000000000000000000000000000000035
:2054b2000000000000000000000000000000000000000000000000000000000000000000da
:1754d2000000000000000000000000000000000000000000000000c3
:2054e900000000000c30000000000000000000000000000000000000000000000000000067
:20550900000000000000000000000000000000000000000000000000000000000000000082
:16552900000000000000000000000000000000000000000000006c
:20553f000000000000c3020000000000000000000000000000000000000000000000000087
:20555f0000000000000000000000000000000000000000000000000000000000000000002c
:17557f00000000000000000000000000000000000000000000000015
:20559600000000000c300000000000000000000000000000000000000000000000000000b9
:2055b6000000000000000000000000000000000000000000000000000000000000000000d5
:1655d60000000000000000000000000000000000000000000000bf
:2055ec000000000000c30200000000000000000000000000000000000000000000000000da
:20560c0000000000000000000000000000000000000000000000000000000000000000007e
:17562c00000000000000000000000000000000000000000000000067
:20564300000000000c3000000000000000000000000000000000000000000000000000000b
:20566300000000000000000000000000000000000000000000000000000000000000000027
:165683000000000000000000000000000000000000000000000011
:205699000000000000c302000000000000000000000000000000000000000000000000002c
:2056b9000000000000000000000000000000000000000000000000000000000000000000d1
:1756d9000000000000000000000000000000000000000000000000ba
:2056f00000000000000000000000000000000000000000000000000000000000000000009a
:20571000000000000000000000000000000000000000000000000000000000000000000079
:165c980000000000100000000000000000000000000000000000e6
:205cae000000000000000000000000000000000000000000000000000000000000000000d6
:205cce000000000000000000000000000000000000000000000000000000000000000000b6
:175cee0000000000000000000000000000000000000000000000009f
:205d050000000000000000000000000000000000000000000000000000000000000000007e
:205d250000000000000000000000000000000000000000000000010000000000000000005d
:165d45000000000000000000000000000000000000000000000048
:205d5b00000000000000000000000000000000000000000000000000000000000000000028
:205d7b00000000000000000000000000000000000000000000000000000000000000000008
:175d9b000000000000000000000000000000000000000000000000f1
:205db2000000000000000000000000000000000000000000000000000000000000000000d1
:205dd2000000000000000000000000000000000000000000000000000000000000000000b1
:165df200000000000000000000000000000000000000000000009b
:205e080000000000000000000000000000000000000000000000000000000000000000007a
:205e280000000000000000000000000000000000000000000000000000000000000000005a
:175e4800000000000000000000000000000000000000000000000043
:205e5f00000000000000000000000000000000000000000000000000000000000000000023
:205e7f00000000000000000000000000000000000000000000000000000000000000000003
:165e9f0000000000000000000000000000000000000000000000ed
:205eb5000000000000000000000000000000000000000000000000000000000000000000cd
:205ed5000000000000000000000000000000000000000000000000000000000000000000ad
:175ef500000000000000000000000000000000000000000000000096
:205f0c00000000000000000000000000000000000000000000000000000000000000000075
:205f2c00000000000000000000000000000000000000000000000000000000000000000055
:165f4c00000000000000000000000000000000000000000000003f
:205f620000000000000000000000000000000000000000000000000000000000000000001f
:205f82000000000000000000000000000000000000000000000000000000000000000000ff
:175fa2000000000000000000000000000000000000000000000000e8
:205fb9000000000000000000000000000000000000000000000000000000000000000000c8
:205fd9000000000000000000000000000000000000000000000000000000000000000000a8
:165ff9000000000000000000000000000000000000000000000092
:20600f00000000000000000000000000000000000000000000000000000000000000000071
:20602f00000000000000000000000000000000000000000000100000000000000000000041
:17604f00000000000000000000001800000000000000000000000022
:2060660000000000000000000000000000000000000000000000000000000000000000001a
:206086000000000000000000000000000000000000000000000000000000000000000000fa
:1660a60000000000000000000000000000000000000000000000e4
:2060bc000000000000000000000000000000000000000000000000000000000000000000c4
:1769c50000000000000000000000000000000000004000000000007b
:2069dc0000000000000000000000000000000000000000000000000000000000000000009b
:2069fc0000000000000000000000000000000000000000000000000000000000000000007b
:166a1c000000000000000000000000000000000000000000000064
:206a3200000000000000000000000000000000000000000000000000000000000000000044
:206a5200000000000000000000000000000000000000000000000000000000000000000024
:176a720000000000000000000000000000000000000000000000000d
:206a89000000000000000000000000000000000000000000000000000000000000000000ed
:206aa9000000000000000000000000000000000000000000000000000000000000000000cd
:166ac90000000000000000000000000000000000000000000000b7
:206adf00000000000000000000000000000000000000000000000000000000000000000097
:206aff00000000000000000000100000000000000000000000100000000000000000000057
:176b1f0000000000000000000000000000000000000000000000005f
:206b360000000000000000000000000000000000000000000000000000000000000000003f
:206b560000000000000000000000000000000000000000000000000000000000000000001f
:166b76000000000000000000000000000000000000000000000009
:206b8c000000000000000000000000000000000000000000000000000000000000000000e9
:206bac000000000000000000000000000000000000000000000000000000000000000000c9
:176bcc000000000000000000000000000000000000000000000000b2
:206be300000000000000000000000000000000000000000000000000000000000000000092
:206c0300000000000000000000000000000000000000000000000000000000000000000071
:166c2300000000000000000000000000000000000000000000005b
:206c390000000000000000000000000000000000000000000000000000000000000000003b
:206c590000000000000000000000000000000000000000000000000000000000000000001b
:176c79000000020000000000000000000000000020000000000000e2
:206c90000000000000000000000000000000000000000000000000000000000000000000e4
:206cb0000000000000000000000000000000000000000000000000000000000000000000c4
:166cd00000000000000000000000000000000000000000000000ae
:206ce60000000000000000000000000000000000000000000000000000000000000000008e
:1672380000000000000000000000000000000000000000005a20c6
:20724e00000000000000000000000000000000000000000000000000000000000000000020
:20726e00000000000000000000000000000000000000000000000000000000000000000000
:17728e00000000000000000000000000000000000000000405a3003d
:2072a5000000000000000000000000000000000000000000000000000000000000000000c9
:2072c5000000000000000000000000000000000000000000000000000000000000000000a9
:1672e5000000000000000000000000000000000000000000000093
:2072fb00000000000000000000000000000000000000000000000000000000000000000073
:1676f300000000000000000000000000000000000024000000005d
:20770900000000000000000000000000000000000000000000000000000000000000000060
:20772900000000000000000000000000000000000000000000000000000000000000000040
:17774900000000000000000000000000000000000000000000000029
:02776000000027
:02776200110212
:02776400010121
:20776600000000000000000002000000000000080000000000002000000000000080000059
:20778600000000020000000000800000000000020000000000000800000000000020000037
:1677a6000000000080000000000002000000000000080000000043
:2077bc00000000000000000000100000000000004000000000000100000000000004000058
:2077dc00000000001000000000040000000000001000000000000000000000000000000069
:1777fc00000000000400000000000010000000000000400000000022
:20781300000000000000000000000000000000000000000000000000000020000000000035
:207833000000000000000000000000000080000000000002000000000000000000000010a3
:16785300000000000000000000000000000000000000000000001f
:207869000000000000000000000000000000000000000000000000000000000000000000ff
:207889000000000000000000000000000000000000000000000000000000000000000001de
:1778a900e000000000000000000000000000000000000000000000e8
:2078c0000000000000000000000000000000000000000000000000000000000000000000a8
:2078e000000000000000000000000000000000000000000000000000000000000000000088
:167900000000000000000000000000000000000000000000000071
:20791600000000000000000000000000000000000000000000000000000000000000000051
:20793600000000000000000000000000000000000000000000000000000000000000000031
:1779560000000000000000000000000000000000000000000000001a
:20796d000000000000000000000000000000000000000000000000080000000000000000f2
:20798d000000000000000000000020000000000000a0000000000000020000000000000018
:1679ad0000000000000000000000000000000000000000000000c4
:2079c3000000000000000000000000000000000000000000000000000000010000000000a3
:2079e300000000000000000000000000000000000000000010000000007c000000000000f8
:177a030000000000000000000000000000000000000000000000006c
:207a1a0000000000000000000000000000000000000000000000000000000000000000004c
:207a3a000000000000000000000010000000000000c000000000000000000000000000005c
:167a5a000000000000000000000000000000000000000000000016
:207a70000000000000000000000000000000000000000000000000000000000000000000f6
:207a90000000000000000000000000000000000000000000000000000000000000000000d6
:177ab0000000000000000000000000000000000000000000000000bf
:207ac70000000000000000000000000000000000000000000000000000000000000000009f
:207ae70000000000000000000000000000000000000000000000028000000000000a0000f3
:167b07000000000000000000000000000000000000000000000068
:207b1d00000000000000000000000000000000000000000000000000000000000000000048
:207b3d00000000000000000000000000000000000000000000000018000000800000c000d0
:177b5d0000020000000000000000000000000000000000000000000f
:207b74000000000000000000000000000000000000000000000000000000000000000000f1
:207b94000000000000000000000000000000000000000000000000000000000000000000d1
:167bb40000000000000000000000000000000000000000000000bb
:207bca0000000000000000000000000000000000000000000000000000000000000000009b
:207bea0000000000000000000000000000000000000080002000000000000080000000005b
:177c0a00000200000000000000000000000000000000000000000061
:207c2100000000000000000000000000000000000000000000000000000000000000000043
:207c4100000000000000000000000000000000000000000000000002000000000000081009
:167c6100000000000000000000000000000000000000000000000d
:207c77000000000000000000000000000000000000000000000000000000000000000000ed
:207c970000000000000000000000000000000000000000000000000000000040000000018c
:177cb700800100000000000000000000000000000000000000000035
:207cce001030c0000000000000000000000000000000000000000000000000000000000096
:207cee00000000000000000000000000000000000000000000000000000000002ff0000057
:167d0e00000000000000000000000000000000000000000000005f
:207d240000030c000000000000000000000000000000000000000000000000000000000030
:207d44000000000000000000000000000000000000000000000000000000000000ff000020
:177d6400000000000000000000000000000000000000000000000008
:207d7b001030c00000000000000000000000000000000000000000000000000000000000e8
:207d9b00000000000000000000000000000000000000000000000000000000002ff00000a9
:167dbb0000050000000000000000000000000000000000000000ad
:207dd10000030c000000000000000000000000000000000000000000000000000000000083
:207df1000000000000000000000000000000000000000000000000000000000000ff000073
:177e110000004000000000000000000000000000000000000000001a
:207e28001030c000000000000000000000000000000000000000000000000000000000003a
:207e480000000000000000000000000000000000000000000000000000000000000000001a
:167e68000000000000000000000000000000000000000000000004
:207e7e0000030c0000000000000000000000000000000000000000000000000000000000d5
:207e9e000000000000000000000000000000000000000000000000000000000000000000c4
:177ebe000000000000000000000000000000000000000000000000ad
:207ed5001030c000000000000000000000000000000000000000000000000000000000008d
:207ef50000000000000000000000000000000000000000000000000000000000000000006d
:167f15000000000000000000000000000000000000000000000056
:207f2b0000030c000000000000000000000000000000000000000000000000000000000027
:207f4b00000000000000000000000000000000000000000000000000000000000000000016
:177f6b000000000000000000000000000000000000000000000000ff
:207f82001030c00000000000000000000000000000000000000000000000000000000000df
:207fa2000000000000000000000000000000000000000000000000000000000000000000bf
:167fc2004000000000000000000000000000000000000000000069
:207fd80000030c00000000000000000000000000000000000000000000000000000000007a
:207ff800000000000000000000000000000000000000000000000000000000000000000069
:17801800300000000000000000000000000000000000000000000021
:20802f001030c0000000000000000000000000000000000000000000000000000000000031
:20804f00000000000000000000000000000000000000000000000000000000000000000011
:16806f0000000000000000000000000000000000000000000000fb
:2080850000030c0000000000000000000000000000000000000000000000000000000000cc
:2080a5000000000000000000000000000000000000000000000000000000000000000000bb
:1780c5000000000000000000000000000000000000000000000000a4
:2080dc001030c0000000000000000000000000000000000000000000000000000000000084
:2080fc00000000000000000000000000000000000000000000000000000000000000000064
:16811c00000000000000000000000000000000000000000000004d
:2081320000030c00000000000000000000000000000000000000000000000000000000001e
:2081520000000000000000000000000000000000000000000000000000000000000000000d
:178172000000000000000000000000000000000000000000000000f6
:208189001030c00000000000000000000000000000000000000000000000000000000000d6
:2081a9000000000000000000000000000000000000000000000000000000000000000000b6
:1681c90000000000000000000000000000000000000000000000a0
:2081df0000030c000000000000000000000000000000000000000000000000000000000071
:2081ff00000000000000000000000000000000000000000000000000000000000000000060
:17821f00000000000000000000000000000000000000000000000048
:208236001030c0000000000000000000000000000000000000000000000000000000000028
:20825600000000000000000000000000000000000000000000000000000000000000000008
:1682760000000000000000000000000000000000000000000000f2
:20828c0000030c0000000000000000000000000000000000000000000000000000000000c3
:2082ac000000000000000000000000000000000000000000000000000000000000000000b2
:1782cc0000000000000000000000000000000000000000000000009b
:2082e3001030c000000000000000000000000000000000000000000000000000000000007b
:2083030000000000000000000000000000000000000000000000000000000000000000005a
:168323000000000000000000000000000000000000000000000044
:2083390000030c000000000000000000000000000000000000000000000000000000000015
:20835900000000000000000000000000000000000000000000000000000000000000000004
:178379000000000000000000000000000000000000000000000000ed
:208390001030c00000000000000000000000000000000000000000000000000000000000cd
:2083b0000000000000000000000000000000000000000000000000000000000000000000ad
:1683d0000000000000000000000000000000000000000000000097
:2083e60000030c000000000000000000000000000000000000000000000000000000000068
:20840600000000000000000000000000000000000000000000000000000000000000000056
:1784260000000000000000000000000000000000000000000000003f
:20843d001030c000000000000000000000000000000000000000000000000000000000001f
:20845d000000000000000000000000000000000000000000000000000000000000000000ff
:16847d0000000000000000000000000000000000000000000000e9
:2084930000030c0000000000000000000000000000000000000000000000000000000000ba
:2084b3000000000000000000000000000000000000000005000000000000000000000000a4
:1784d300000000000000000000000000000000000000000000000092
:2084ea001030c0000000000000000000000000000000000000000000000000000000000072
:20850a00000000000000000000000000000000000000000000000000000000000000000051
:16852a00000000000000000000000000000000000000000000003b
:2085400000030c00000000000000000000000000000000000000000000000000000000000c
:208560000000000000000000000000000000000000000000000000000000000000000000fb
:178580000000000000000000000000000000000000000000000000e4
:208597001030c00000000000000000000000000000000000000000000000000000000000c4
:2085b7000000000000000000000000000000000000000000000000000000000000000000a4
:1685d700000000000000000000000000000000000000000000008e
:2085ed0000030c00000000000000000000000000000000000000000000000000000000005f
:20860d0000000000000000000000000000000000000000000000000000000000000000004d
:17862d00000000000000000000000000000000000000000000000036
:208644001030c0000000000000000000000000000000000000000000000000000000000016
:208664000000000000000000000000000000000000000000000000000000000000000000f6
:1686840000000000000000000000000000000000000000000000e0
:20869a0000030c0000000000000000000000000000000000000000000000000000000000b1
:2086ba000000000000000000000000000000000000000000000000000000000000000000a0
:1786da00000000000000000000000000000000000000000000000089
:2086f1001030c0000000000000000000000000000000000000000000000000000000000069
:20871100000000000000000000000000000000000000000000000000000000000000000048
:168731000000000000000000000000000000000000000000000032
:2087470000030c000000000000000000000000000000000000000000000000000000000003
:208767000000000000000000000000000000000000000000000000000000000000000000f2
:178787000000000000000000000000000000000000000000000000db
:20879e001030c00000000000000000000000000000000000000000000000000000000000bb
:2087be0000000000000000000000000000000000000000000000000000000000000000009b
:1687de000000000000000000000000000000000000000000000085
:2087f40000030c000000000000000000000000000000000000000000000000000000000056
:20881400000000000000000000000000000000000000000000000000000000000000000044
:1788340000020000000000000000000000000000000000000000002b
:20884b001030c000000000000000000000000000000000000000000000000000000000000d
:20886b000000000000000000000000000000000000000000000000000000000000000000ed
:16888b0000200000000000000000000000000000000000000000b7
:2088a10000030c0000000000000000000000000000000000000000000000000000000000a8
:2088c100000000000000000000000000000000000000000000000000000000000000000097
:1788e100000000000000000000000000000000000000000000000080
:2088f8001030c0000000000000000000000000000000000000000000000000000000000060
:2089180000000000000000000000000000000000000000000000000000000000000000003f
:168938000000000000000000000000000000000000000000000029
:20894e0000030c0000000000000000000000000000000000000000000000000000000000fa
:20896e000000000000000000000000000000000000000000000000000000000000000000e9
:17898e000000000000000000000000000000000000000000000000d2
:2089a5001030c00000000000000000000000000000000000000000000000000000000000b2
:2089c500000000000000000000000000000000000000000000000000000000000000000092
:1689e500000000000000000000000000000000000000000000007c
:2089fb0000030c00000000000000000000000000000000000000000000000000000000004d
:208a1b0000000000000000000000000000000000000000000000000000000000000000003b
:178a3b00000000000000000000000000000000000000000000000024
:208a52001030c0000000000000000000000000000000000000000000000000000000000004
:208a72000000000000000000000000000000000000000000000000000000000000000000e4
:168a920000000000000000000000000000000000000000000000ce
:208aa80000030c00000000000000000000000000000000000000000000000000000000009f
:208ac80000000000000000000000000000000000000000000000000000000000000000008e
:178ae800000000000000000000000000000000000000000000000077
:208aff005430c0000000000000000000000000000000000000000000000000000000000013
:208b1f00000000000000000000000000000000000000000000000000000000000000000036
:168b3f000000000000000000000000000000000000000000000020
:208b550000030c0000000000000000000000000000000000000000000000000000000000f1
:208b75000000000000000000000000000000000000000000000000000000000000000000e0
:178b95000000000000000000000000000000000000000000000000c9
:208bac001030c00000000000000000000000000000000000000000000000000000000000a9
:208bcc00000000000000000000000000000000000000000000000000020010000000000077
:168bec000000000000000000000000000000000000000000000073
:208c020000030c000000000000000000000000000000000000000000000000000000000043
:208c22000000000000000000000000000000000000000000000000000000008000000000b2
:178c420000000000000000000000000000000000000000000000001b
:208c59001030c00000000000000000000000000000000000000000000000000000000000fb
:208c79000000000000000000000000000000000000000000000000000000000000000000db
:168c990000000000000000000000000000000000000000000000c5
:208caf0000030c000000000000000000000000000000000000000000000000000000000096
:208ccf00000000000000000000000000000000000000000000000000000000000000000085
:178cef0000000000000000000000000000000000000000000000006e
:208d06001030c000000000000000000000000000000000000000000000000000000000004d
:208d260000000000000000000000000000000000000000000000000000000000000000002d
:168d46000000000000000000000000000000000000000000000017
:208d5c0000030c0000000000000000000000000000000000000000000000000000000000e8
:208d7c000000000000000000000000000000000000000000000000000000000000000000d7
:178d9c000000000000000000000000000000000000000000000000c0
:208db3001030c00000000000000000000000000000000000000000000000000000000000a0
:208dd300000000000000000000000000000000000000000000000000000000000000000080
:168df300000000000000000000000000000000000000000000006a
:208e090000030c00000000000000000000000000000000000000000000000000000000003a
:208e2900000000000000000000000000000000000000000000000000000000000000000029
:178e4900000000000000000000000000000000000000000000000012
:208e60001030c00000000000000000000000000000000000000000000000000000000000f2
:208e80000000000000000000000000000000000000000000000000000000000000000000d2
:168ea00000000000000000000000000000000000000000000000bc
:208eb60000030c00000000000000000000000000000000000000000000000000000000008d
:208ed60000000000000000000000000000000000000000000000000000000000000000007c
:178ef600000000000000000000000000000000000000000000000065
:208f0d001030c0000000000000000000000000000000000000000000000000000000000044
:208f2d00000000000000000000000000000000000000000000000000000000000000000024
:168f4d00000000000000000000000000000000000000000000000e
:208f630000030c0000000000000000000000000000000000000000000000000000000000df
:208f83000000000000000000000000000000000000000000000000000000000000000000ce
:178fa3000000000000000000000000000000000000000000000000b7
:208fba001030c0000000000000000000000000000000000000000000000000000000000097
:208fda00000000000000000000000000000000000000000000000000000000000000000077
:168ffa002000000000000000000000000000000000000000000041
:2090100000030c000000000000000000000000000000000000000000000000000000000031
:20903000000000000000000000000000000000000000000000000000000000000000000020
:17905000000000000000000000000000000000000000000000000009
:209067001030c00000000000000000000000000000000000000000000000000000000000e9
:20908700000000000000000000000000000000000000008000000000000000000000000049
:1690a70000000000000000000000000000000000000000000400af
:2090bd0000030c000000000000000000000000000000000000000000000000000000000084
:2090dd00000000000000000000000000000000000000001000000000000000000000000063
:1790fd00000000000000000000000000000000000000000000a000bc
:209114001030c000000000000000000000000000000000000000000000000000000000003b
:2091340000000000000000000000000000000000000000000000000000000000000000001b
:169154000000000000000000000000000000000000000000000005
:20916a0000030c0000000000000000000000000000000000000000000000000000000000d6
:20918a000000000000000000000000000000000000000000000000000000000000000000c5
:1791aa000000000000000000000000000000000000000000000000ae
:2091c1001030c000000000000000000000000000000000000000000000000000000000008e
:2091e10000000000000000000000000000000000000000000000000000000000000000006e
:169201000000000000000000000000000000000000000000000057
:2092170000030c000000000000000000000000000000000000000000000000000000000028
:20923700000000000000000000000000000000000000000000000000000000000000000017
:17925700000000000000000000000000000000000000000000000000
:20926e000000000000000000000000000000000000000000000000000000000000000000e0
:20928e000000000000000000000000000000000000000000000000000000000000000000c0
:1692ae0000000000000000000000000000000000000000000000aa
:2092c40000000000000000000000000000000000000000000000000000000000000000008a
:2092e40000000000000000000000000000000000000000000000000000000000000000006a
:17930400000000000000000000000000000000000000000000000052
:20931b00000000000000000000000000000000000000000000000000000000000000000032
:20933b00000000000000000000000000000000000000000000000000000000000000000012
:16935b0000000000000000000000000000000000000000000000fc
:209371000000000000000000000000000000000000000000000000000000000000000000dc
:209391000000000000000000000000000000000000000000000000000000000000000000bc
:1793b1000000000000000000000000000000000000000000000000a5
:2093c800000000000000000000000000000000000000000000000000000000000000000085
:2093e800000000000000000000000000000000000000000000000000000000000000000065
:1694080000000000000000000000000000000000000000500000fe
:20941e0000000000000000000000000000000000000000000000000000000000000000002e
:20943e0000000000000000000000000000000000000000000000000000000000000000000e
:17945e00000000000000000000000000000000000000000080000077
:209475000000000000000000000000000000000000000000000000000000000000000000d7
:209495000000000000000000000000000000000000000000000000000000000000000000b7
:1694b50000000000000000000000000000000000000000000000a1
:2094cb00000000000000000000000000000000000000000000000000000000000000000081
:2094eb00000000000000000000000000000000000000000000000000000000000000000061
:17950b00000000000000000000000000000000000000000000000049
:20952200000000000000000000000000000000000000000000000000000000000000000029
:20954200000000000000000000000000000000000000000000000000000000000000000009
:1695620000000000000000000000000000000000000000000000f3
:209578000000000000000000000000000000000000000000000000000000000000000000d3
:209598000000000000000000000000000000000000000000000000000000020000000000b1
:1795b8000008000000000000200000000000008000000000000200f2
:2095cf0000000000000000000000000000000000000000000000000000000000000000007c
:2095ef0000000000000000000000000000000000000000000000000000000000000000005c
:16960f0000000000000000000000000000000000000000700000d5
:20962500000000000000000000000000000000000000000000000000000000000000000025
:20964500000000000000000000000000000000000000000000000000000000000000000005
:179665000000000000000000000000000000000000000000000000ee
:20967c000000000000000000000000000000000000000000000000000000000000000000ce
:20969c000000000000000000000000000000000000000000000000000000000000000000ae
:1696bc000000000000000000000000000000000000000000000098
:2096d200000000000000000000000000000000000000000000000000000000000000000078
:2096f200000000000000000000000000000000000000000000000000000000000000000058
:17971200000000000000000000000000000000000000000000000040
:20972900000000000000000000000000000000000000000000000000000000000000000020
:20974900000000000000000000000000000000000000000000000000000000000000000000
:169769000000000000000000000000000000000010154100000084
:20977f000000000000000000000000000000000000000000000000000000000000000000ca
:20979f000000000000000000000000000000000000000000000000000000000000000000aa
:1797bf0000000000000000000000000000000000000282d00000003f
:2097d600000000000000000000000000000000000000000000000000000000000000000073
:2097f600000000000000000000000000000000000000000000000000000000000000000053
:1698160000000000000000000000000000000000000000980000a4
:20982c0000000000000000000000000000000000000000000000000000000000000000001c
:20984c000000000000000000000000000000000000000000000000000000000000000000fc
:17986c000000000000000000000000000000000000000007000000de
:209883000000000000000000000000000000000000000000000000000000000000000000c5
:2098a3000000000000000000000000000000000000000005000000000001c00000000000df
:1698c300000000bd4de0000010000000000000001abd5800100155
:2098d90000000000000000000000000000000000000000000000000000000000000000006f
:2098f90000000000000000000000000000000000000000000000000000000000000000004f
:1799190000000063d42000000000000000000000000280f00f00005f
:20993000000000000000000000000000000000000000000000000000000000000000000017
:20995000000000000000000000000000000000000000800000000000000000000000000077
:1699700000000000000000000000000000000000089e4000e0001b
:209986000000000000000000000000000000000000000000000000000000000000000000c1
:2099a6000000000000000000000000000000000000000000000000000000000000000000a1
:1799c600000000000000000000000000000000000006c6a01b000003
:2099dd0000000000000000000000000000000000000000000000000000000000000000006a
:2099fd0000000000000000000000000000000000000000000000000000000000000000004a
:169a1d0000000000000000000004057e802800000abd58000000e5
:209a3300000000000000000000000000000000000000000000000000000000000000000013
:209a53000000000000000000000000000000000000000000000000000000000000000000f3
:179a730000000000000000000000005000040000000280a000000066
:209a8a000000000000000000000000000000000000000000000000000000000000000000bc
:209aaa0000000000000000000000000000000000000000000000000000000000000000009c
:169aca000000000000000000000000000000000000000000000086
:209ae000000000000000000000000000000000000000000000000000000000000000000066
:209b0000000000000000000000000000000000000000000000000000000000000000000045
:179b20000000000000003000000000000000000000000005000000f9
:209b370000000000000000000000000000000000000000000000000000000000000000000e
:209b57000000000000000000000000000000000000000000000000000000000000000000ee
:169b7700000000abcec80000000000000000000000144c00000037
:209b8d000000000000000000000000000000000000000000000000000000000000000000b8
:209bad00000000000000000000000000000000000000000000000000000000000000000098
:179bcd0000000000283fb00000000000000000002001430000000006
:209be400000000000000000000000000000000000000000000000000000000000000000061
:209c0400000000000000000000000000000000000000000000000000000000000000000040
:169c240000000000000800000000000000000000000000800000a2
:209c3a0000000000000000000000000000000000000000000000000000000000000000000a
:209c5a000000000000000000000000000000000000000000000000000000000000000000ea
:179c7a00000000000000f000000000000000000000000001000000e2
:209c91000000000000000000000000000000000000000000000000000000000000000000b3
:209cb100000000000000000000000000000000000000000000000000000000000000000093
:169cd10000200000000018000000000000680000000000000000dd
:209ce70000000000000000000000000000000000000000000000000000000000000000005d
:209d070000000000000000000000000000000000000000000000000000000000000000003c
:179d2700000500000000000000000000000000000000000000200000
:209d3e00000000000000000000000000000000000000000000000000000000000000000005
:209d5e00000000000000000000000000000000000000000000000000000000004ff00000a6
:169d7e0000000000000800000000000000000000089efa018000a6
:209d94000000000000000000000000000000000000000000000000000000000000000000af
:209db4000000000000000000000000000000000000000000000000000000000200ff00008e
:179dd400000000000000100000000000000000000009ff0000000060
:209deb00000000000000000000000000000000000000000000000000000000000000000058
:209e0b00000000000000000000000000000000000000000000000000000000000000000037
:169e2b000000000000000000100a0f58000000400abd5e0000013a
:209e4100000000000000000000000000000000000000000000000000000000000000000001
:209e61000000000000000000000000000000000000000000000000000000000000000000e1
:179e8100000000000000d000040000f080000000020283e00000001f
:209e98000000000000000000000000000000000000000000000000000000000000000000aa
:209eb80000000000000000000000000000000000000000000000000000000000000000008a
:169ed800000080a2d5f0000000020f58000000300000007800007c
:209eee00000000000000000000000000000000000000000000000000000000000000000054
:209f0e00000000000000000000000000000000000000000000000000000000000000000033
:179f2e00000000030e699000000000f000000003000000008000009f
:209f45000000000000000000000000000000000000000000000000000000000000000000fc
:209f65000000000000000000000000000000000000000000000000000000000000000000dc
:169f850000000000000000800002a5005c3800002015c180000095
:209f9b000000000000000000000000000000000000000000000000000000000000000000a6
:209fbb00000000000000000000000000000000000000000200000000000000000000000084
:179fdb000000000000000004000005a034024000000282df000000ed
:209ff20000000000000000000000000000000000000000000000000000000000000000004f
:20a0120000000000000000000000000000000000000000000000000000000400000000002a
:16a032000000000000000000000000000000000000000000000018
:20a048000000000000000000000000000000000000000000000000000000000000000000f8
:20a06800000000000000000000000000000000000000000000000000000000800000000058
:17a088000000000000000000000000000000000000000000000000c1
:20a09f000000000000000000000000000000000000000000000000000000000000000000a1
:20a0bf00000000000000000000000000000000000000000000000000000000000000000081
:16a0df00002000000001800c00020f580400000000000018000039
:20a0f50000000000000000000000000000000000000000000000000000000000000000004b
:20a1150000000000000000000000000000000000000000000000000000000000000000002a
:17a135000005000000005000000000f00020000000000000000000ae
:20a14c000000000000000000000000000000000000000000000000000000000000000000f3
:20a16c000000000000000000000000000000000000000000000000000000000000000000d3
:16a18c000000000000000000000000000400000000000058000061
:20a1a20000000000000000000000000000000000000000000000000000000000000000009d
:20a1c20000000000000000000000000000000000000000000000000000000000000000007d
:17a1e20000000000000000000000000000200000000000000f000037
:20a1f900000000000000000000000000000000000000000000000000000000000000000046
:20a21900000000000000000000000000000000000000000000000000000000000000000025
:16a23900100001b4e7d0000000000000000000000b9e1e7000005c
:20a24f000000000000000000000000000000000000000000000000000000000000000000ef
:20a26f000000000000000000000000000000000000000000000000000000000000000000cf
:17a28f00008000010efe00b000000000000000000010b580800000b6
:20a2a600000000000000000000000000000000000000000000000000000000000000000098
:20a2c600000000000000000000000000000000000000000000000000000000001000280040
:16a2e6000000004001a008000000eb503c00000000000000000002
:20a2fc00000000000000000000000000000000000000000000000000000000000000000042
:20a31c000000000000000000000000000000000000000000000000000000000040000034ad
:17a33c0028000100000000b000000d753fe000000000000000000090
:20a353000000000000000000000000000000000000000000000000000800000000000000e2
:20a3730000000000000000000000000000000000000080400000000000000100100821c20e
:16a393008000004000e18000000002b254780000000000000a0108
:20a3a900000000000000000000000000000000000000000000000000000000000000000094
:20a3c900000000000000000000000000000000000000000000000000000000000000740000
:17a3e9004000000001c0000000000009742643000000000000400036
:20a4000000000000000000000000000000000000000000000000000000000000000000003c
:20a42000000000000000000000000000000000000000000000000000000000c010007000dc
:16a440000000004001850f00004002135c28000000000000000058
:20a45600c00000000000000000000000000000000000000000000000000000000000000026
:20a476000000000000000000000000000000000000000000000000000000000800001400aa
:17a496002c00000000d009a000000000f426400000000000000008a8
:20a4ad0000000000000000000000000000000000000000000000000000000000000000008f
:20a4cd000000000000000000000000000000000000000100000a940100000000100878003f
:16a4ed001700004000a000000040005f46380000083dc0000140ff
:20a50300000000000000000000000000000000000000000000000000000000000000000038
:20a52300000000000000000000000000000000000000000e00021680d00000000000700032
:17a543000080000001d000b000200010b00400000403c20000000053
:20a55a000000000000000000000000000000000000000000000000000000000000000000e1
:20a57a0000000000000000000000000000000000000000000000000000000000100062004f
:16a59a0000000040008000000040f3701c0080000000008000002c
:20a5b00000000000000000000000000000000000000000000000000000000000000000008b
:20a5d000000000000000000000000000000000000000000000000000070000000000101c38
:17a5f0002c00000000c000e000000f30800280000000000300000044
:20a60700000000000000000000000000000000000000000000000000000000000000000033
:20a627000000000000000000000000000000000000000000000000001004c000100832688d
:16a647000000004000c100000000fa7294380000083dc0000000bf
:20a65d000000000000000000000000000000000000000000000000000000000000000000dd
:20a67d00000000000000000000000000000000000000000000000000000020000000742cfd
:17a69d000000000001409800000045f0a847c0000403c00000000022
:20a6b400000000000000000000000000000000000000000000000000000000000000000086
:20a6d4000000000000000000000000000000000000000000000000000000000000f1000075
:16a6f4000000202945c00a00000022bf9c00000000000010a000cb
:20a70a0000000000000000000000000000000000000000000000000000000000000000002f
:20a72a0000000000000000000000000000000000000000000000000000000000040f0000fc
:17a74a0000000002bc1a90e0000004452c4004000000000080000077
:20a761000000000000002000000000000000000000000000000000000000000000000000b8
:20a78100000000000000000000000000000000000000000000000000000000000f537402e0
:16a7a1008000003fce8000000000a01ac00000000000000000001b
:20a7b700000000000000000000000000000000000000000000000000000000000000000082
:20a7d7000000000000000000000000000000000000000000000000000000000000af06406d
:17a7f70060000003c02f0000000000002003c0000000000000000016
:20a80e0000000000000000000000000000000000000000000000000000000000000000002a
:20a82e00000000000000000000000000000000000000000000000000800000000ddda542b9
:16a84e0008000083d5ab1d08000050303e6000001140eb780000f2
:20a864000000000000000000000000000000000000000000000000000000000000000000d4
:20a884000000000000000000000000000000000000000000000000000b00000000bb578215
:17a8a400410000022e4af8e100000a002c6000000000039080000060
:20a8bb0000000000000000000000000000000000000000000000000000100000000000006d
:20a8db000000000000000000000000000000000000000100000b94ee000003000ffdf1606f
:16a8fb000004001f8d9580001042a5768002004000000000000053
:20a91100000000000000000000000000000000000000000000000000000000000000000026
:20a93100000000000000000000000000000000000000000000062174c000000000339b00dd
:17a9510000000023fa4f0090000009a0614010000000000f0000008a
:20a968000000000000000000000000000000000000000000000000000000000000000000cf
:20a98800000000000000000000000000000000000000000000000000000000800ddb64667d
:16a9a80080001481dda01901000022770400000002065b80a000cd
:20a9be00000000000000000000000000000000000000000000000000000000000000000079
:20a9de000000000000000000000000000000000000000000000000000100000800bbd702bc
:17a9fe00000000007c39d0800000044b70200000010077971000003f
:20aa1500000000000000000000000000000000000000000000000000000000000000000021
:20aa3500000000000000000000000000000000000000017000000000000000000503b0c711
:16aa5500c020003b9db78000000000f7bc000000000000b0100089
:20aa6b000000000000000000000000000000000000000000000000000000000000000000cb
:20aa8b000000000000000000000000000000000000000020000000000000000000500c022d
:17aaab0060050002ec59d8b000000cc7e1600000000000070f000036
:20aac200000000000000000000000000000000000000000000000000000000000000000074
:20aae20000000000000000000000000000000000000000000000000000e0000c20d5b806b5
:16ab0200800000375ed500000040007a3434000000000000000031
:20ab180000000000000000000000000000000000000000000000000000000000000000001d
:20ab380000000000000000000000000000000000000000000000000000100000808f06b424
:17ab580028000002ec5b009180000400e547c0000000000000000074
:20ab6f000000000000000000000000000000000000000000000000000000000000000000c6
:20ab8f0000000000000000000000000040000000000000400000000000101c000ee53600d1
:16abaf000020003b9db11e000040011846000000000000700000ba
:20abc500000000000000000000000000000000000000000000000000000000000000000070
:20abe500000000000000000000000000020000000000000000000000000f014000771bacc0
:17ac05003c050002ec59080014200020ac00000000000000000000a8
:20ac1c00000000000000000000000000000000000000000000000000000000000000000018
:20ac3c00000000000000000000000000000000000000000000000000018000000ee7a000e2
:16ac5c00000000140ea80a00000050331e6c0000008bfa0200007a
:20ac72000000000000000000000000000000000000000000000000000000000000000000c2
:20ac920000000000000000000000000000000000000000000000000000001c00107732fcd1
:17acb2000000000140301000000005004002801000113ea000000044
:20acc90000000000000000000000000000000000000000000000000000000000000000006b
:20ace900000000000000000000000000000000000000005000000000000000200503ac0324
:16ad0900902012a9c4b001000042a576d600500000000038000099
:20ad1f00000000000000000000000000000000000000000000000000000000000000000014
:20ad3f000000000000000000000000000000000000000000000000000000000000000bdc0d
:17ad5f007c850000682cf0a0000009a077c200000000000f80000047
:20ad76000000000000000000000000000000000000000000000000000000000000000000bd
:20ad9600000000000000000000000000000000000000000000091d4f0000000000000366bf
:16adb6000000003fff80006140020a3a8000000000000000000062
:20adcc00000000000000000000000000000000000000000000000000000000000000000067
:20adec000000000000000000000000000000000000000000002003dd8000000000000014b3
:17ae0c0000000003eeced00000291fa02440200000000005004000ef
:20ae230000000000000000000000000000000000000000000000000000000000000000000f
:20ae4300000000000000000000000000000000000000000200000000000001002833300061
:16ae63000004303fdd800a0000000000200000480b96ee00000107
:20ae79000000000000000000000000000000000000000000000000000000000000000000b9
:20ae9900000000000000000000000000000000000000000000000000000b000080e31a40d1
:17aeb900000004437c2c01b00000000002c0000000216ee0000000b1
:20aed000000000000000000000000000000000000000000000000000000000000000000062
:20aef000000000000000000000000000000000000000000000000000001000c06e53bc00f5
:16af100000030017d7c0010000060f300004000000000000000030
:20af260080000000000000000000000000000000000000000000000000000000000000008b
:20af46000000000000000000000000000000000000000000000000000008000c008537001b
:17af6600000032017c3000a1002010f000020000000000000000082a
:20af7d000000000000000000000000000000000000000000000000000000000000000000b4
:20af9d000000000000000000000000000000000000000000000000000000000068bb26004b
:16afbd0013000036e010000000020f1800700000000000000000ac
:20afd30000000000000000000000000000000000000000000000000000000000000000005e
:20aff3000000000000000000000000000000000000000000000000000000000090c3d7bc58
:17b01300008000039ecbd000002010f08004000000000000000000c6
:20b02a00000000000000000000000000000000000000000000000000000000000000000006
:20b04a000000000000000000000000000000000000000000000000000000000000000000e6
:16b06a000000100600001f004000000000780000000000000000e3
:20b080000000000000000000000000000000000000000000000000000000000000000000b0
:20b0a000000000000000000000000000000000000000000000000000000000000000003c54
:17b0c0003c000000900f01e008000000000000000000000000800035
:20b0d700000000000000000000000000000000000000000000000000000000000000000059
:20b0f700000000000000000000000000000000000000000000000000fbc00000000000621c
:16b11700000001001c8700400000000000380000000000100000f6
:20b12d00000000000000000000000000000000000000000000000000000000000000000002
:20b14d00000000000000000000000000000000000000000000000000011040000000000091
:17b16d006800001081fc700a140000000004000000000005800000bf
:20b184000000000000000000000000000000000000000000000000000000000000000000ab
:20b1a4000000000000000000000000000000000000000000080b94fd7080000000000240b5
:16b1c4000000003fd6b10900000000000000000000000001900015
:20b1da00000000000000000000000000000000000000000000000000000000000000000055
:20b1fa0000000000000000000000000000000000000000000000129edf00000000000006a0
:17b21a0000000001fcef08800800000000000000000000000e000093
:20b231000000000000000000000000000000000000000000000000000000000000000000fd
:20b251000000000000000000000000000000000000000000000000000000002828bb700062
:16b27100002000000007000000000000000000200000000000047c
:20b287000000000000000000000000000000000000000000000000000000000000000000a7
:20b2a7000000000000000000000000000000000000000000000000000000000010c3b240c2
:17b2c70028050000000000a000000000000000030000000000008020
:02b2de0000006e
:02b2e000110358
:02b2e200010168
:20b2e4000000000000000000020000000000000800000000000020000000000000800000a0
:20b3040000000002000000000000000000800002000000000000080000000000002000007d
:16b324000000000080000000000002000000000000080000000089
:20b33a0000000000000000000010000000000000400000000000010000000000000400009e
:20b35a0000000000100000000004000000000000000000000000004000000000000100007e
:17b37a00000000000400000000000010000000000000400000000068
:20b3910000000000000000000000000000000000000000000000000000000000000000009c
:20b3b1000000000000000000000000000080000000000002000000000000000000000000fa
:16b3d100002000000000000000000000000000000000000000083e
:20b3e700000000000000000000000000000000000000000000000000000000000000000046
:20b40700000000000000000000000000000000000000000000000000000000000000000025
:17b4270000000000000000000000000000000000000000000000000e
:20b43e000000000000000000000000000000000000000000000000000000000000000000ee
:20b45e0000000000000000000000000000400000000000000000000000000000000000800e
:16b47e0000000000000000000000000000000000000000000000b8
:20b49400000000000000000000000000000000000000000000000000000000000000000098
:20b4b4000000000000000000000380000000000000000000000000000000000000000000f5
:17b4d400000000000000000000000000000000000000000000000061
:20b4eb00000000000000000000000000000000000000000000000000000000000000000041
:20b50b00000000000000000000000000000000000080000100000000000000000000080097
:16b52b0000000000000000000000000000000000000002200004e4
:20b541000000000000000000000000000000000000000000000000000000000000000000ea
:20b561000000000000000000000000000000000000000000000000000000000000000000ca
:17b581000001000000000000000000000000000000000000000000b2
:20b59800000000000000000000000000000000000000000000000000000000000000000093
:20b5b800000000000000000000002000000000000000000000000002000000000000000051
:16b5d80000000000600000000000000000000000000402000000f7
:20b5ee0000000000000000000000000000000000000000000000000000000000000000003d
:20b60e0000000000000000000000000000000000000000000000000000000000000000001c
:17b62e00000000000000000000000000000000000000000000000005
:20b645000000000000000000000000000000000000000000000000000000000000000000e5
:20b6650000000000000000000000000000000000e0000000000000000000000000000000e5
:16b6850000000000000000000000000000000000000000000000af
:20b69b0000000000000000000000000000000000000000000000000000000000000000008f
:20b6bb0000000000000000000000000000000000000000002000000000000000000000004f
:17b6db00000000000000000000000000000000000000000000000058
:20b6f200000000000000000000000000000000000000000000000000000000000000000038
:20b712000000000000000000000000700000000000000000000000000000000000000000a7
:16b7320000000000000000000000000000000000000000000008f9
:20b748000000000000000000000000000000000000000000000000000000000000000000e1
:20b768000000000000000000000000000008000000000e002000000000000080000000000b
:17b7880000000000000000000000000000000000000000000000802a
:20b79f0000000000000000000000000000000000000000000000000000000000000000008a
:20b7bf000000000000000000000000200080000000010000000000000000080000000000c1
:16b7df0000000000000000000000000000000000000080000008cc
:20b7f500000000000000000000000000000000000000000000000000000000000000000034
:20b815000000000000000000000000004000000000001800100000000000000000000000ab
:17b835000000000000000000000000000000000000000000000000fc
:20b84c000030c00000000000000000000000000000000000000000000000000000000000ec
:20b86c000000000000000000000000000000000000000000000000000000000000000000bc
:16b88c0000000000000000000000000000000000000000000000a6
:20b8a20001030c000000000000000000000000000000000000000000000000000000000076
:20b8c200000000000000000000000000000000000000000000000000000000000000000066
:17b8e20000000000000000000000000000000000000000000000004f
:20b8f9000030c000000000000000000000000000000000000000000000000000000000003f
:20b9190000000000000000000000000000000000000000000000000000000000000000000e
:16b9390000000000000000000000000000000000000000000000f8
:20b94f0001030c0000000000000000000000000000000000000000000000000000000000c8
:20b96f000000000000000000000000000000000000000000000000000000000000000000b8
:17b98f000000000000000000000000000000000000000000000000a1
:20b9a6000030c0000000200000000000000000000000000000000000000000000000000071
:20b9c600000000000000000000000000000000000000000000000000000000000000000061
:16b9e600000000000000000000000000000000000000000000004b
:20b9fc0001030c00000000000000000000000000000000000000000000000000000000001b
:20ba1c0000000000000000000000000000000000000000000000000000000000000000000a
:17ba3c000000000000000000000000000000000000000000000000f3
:20ba53000030c00000000000000000000000000000000000000000000000000000000000e3
:20ba73000000000000000000000000000000000000000000000000000000000000000000b3
:16ba9300000000000000000000000000000000000000000000009d
:20baa90001030c00000000000000000000000000000000000000000000000000000000006d
:20bac90000000000000000000000000000000000000000000000000000000000000000005d
:17bae900000000000000000000000000000000000000000000000046
:20bb00000030c0000000000000000000000000000000000000000000000000000000000035
:20bb2000000000000000000000000000000000ff0000000000000000000000000000000006
:16bb400000000000000000000000000000000000000000000000ef
:20bb560001030c0000000000000000000000000000000000000000000000000000000000bf
:20bb76000000000000000000000000000000002ff001c000000000000000000000000000cf
:17bb9600000000000000000000000000000000000000000000000098
:20bbad000030c0000000000000000000000000000000000000000000000000000000000088
:20bbcd00000000000000000000000000000000ff0000400000000000000000000000000019
:16bbed000000000000000000000000000000000000000000000042
:20bc030001030c000000000000000000000000000000000000000000000000000000000011
:20bc23000000000000000000000000000000002ff00007800000000000000000000000005b
:17bc43000000000000000000000000000000000000000000000000ea
:20bc5a000030c00000000000000000000000000000000000000000000000000000000000da
:20bc7a000000000000000000000000000000000a0a400000700000000000000000000000e6
:16bc9a000000000000000000000000000000000000000000000094
:20bcb00001030c000000000000000000000000000000000000000000000000000000000064
:20bcd00000000000000000000000000000000000558000000400000000000000000000007b
:17bcf00000000000000000000000000000000000000000000000003d
:20bd07000030c000000000000000000000000000000000000000000000000000000000002c
:20bd27000000000000000000000000000000000002440000000000000000000000000000b6
:16bd470000000000000000000000000000000000000000000000e6
:20bd5d0001030c0000000000000000000000000000000000000000000000000000000000b6
:20bd7d000000000000000000000000000000000a5022638000000000000000000000000047
:17bd9d0000000000000000000000000000000000000000000000008f
:20bdb4000030c000000000000000000000000000000000000000000000000000000000007f
:20bdd40000000000000000000000000000000000000000000000000000000000000000004f
:16bdf4000000000000000000000000000000000000000000000039
:20be0a0001030c000000000000000000000000000000000000000000000000000000000008
:20be2a000000000000000000000000000000000000000000000000000000000000000000f8
:17be4a000000000000000000000000000000000000000000000000e1
:20be61000030c00000000000000000000000000000000000000000000000000000000000d1
:20be81000000000000000000000000000000000000000000000000000000000000000000a1
:16bea100000000000000000000000000000000000000000000008b
:20beb70001030c00000000000000000000000000000000000000000000000000000000005b
:20bed70000000000000000000000000000000000000000000000000000000000000000004b
:17bef700000000000000000000000000000000000000000000000034
:20bf0e000030c0000000000000000000000000000000000000000000000000000000000023
:20bf2e000000000000000000000000000000000000000000000000000000000000000000f3
:16bf4e0000000000000000000000000000000000000000000000dd
:20bf640001030c0000000000000000000000000000000000000000000000000000000000ad
:20bf840000000000000000000000000000000000000000000000000000000000000000009d
:17bfa400000000000000000000000000000000000000000000000086
:20bfbb000030c0000000000000000000000000000000000000000000000000000000000076
:20bfdb00000000000000000000000000000000000000000000000000000000000000000046
:16bffb000000000000000000000000000000000000000000000030
:20c0110001030c0000000000000000000000000000000000000000000000000000000000ff
:20c031000000000000000000000000000000000000000000000000000000000000000000ef
:17c051000000000000000000000000000000000000000000000000d8
:20c068000030c00000000000000000000000000000000000000000000000000000000000c8
:20c08800000000000000000000000000000000000000000000000000000000000000000098
:16c0a8000000000000000000000000000000000000000000000082
:20c0be0001030c000000000000000000000000000000000000000000000000000000000052
:20c0de00000000000000000000000000000000000000000000000000000000000000000042
:17c0fe0000000000000000000000000000000000000000000000002b
:20c115000030c000000000000000000000000000000000000000000000000000000000001a
:20c135000000000000000000000000000000000000000000000000000000000000000000ea
:16c155000000000000000000000000000000000000000000014093
:20c16b0001030c0000000000000000000000000000000000000000000000000000000000a4
:20c18b00000000000000000000000000000000000000000000000000000000000000000094
:17c1ab0000000000000000000000000000000000000000000000007d
:20c1c2000030c000000000000000000000000000000000000000000000000000000000006d
:20c1e20000000000000000000000000000000000000000000000000000000000000000003d
:16c202000000000000000000000000000000000000000000000026
:20c2180001030c0000000000000000000000000000000000000000000000000000000000f6
:20c238000000000000000000000000000000000000000000000000000000000000000000e6
:17c258000000000000000000000000000000000000000000000000cf
:20c26f000030c00000000000000000000000000000000000000000000000000000000000bf
:20c28f0000000000000000000000000000000000000000000000000000000000000000008f
:16c2af000000000000000000000000000000000000000000000079
:20c2c50001030c000000000000000000000000000000000000000000000000000000000049
:20c2e500000000000000000000000000000000000000000000000000000000000000000039
:17c305000000800000000000000000000000000000000000000000a1
:20c31c000030c0000000000000000000000000000000000000000000000000000000000011
:20c33c000000000000000000000000000000000000000000000000000000000000000000e1
:16c35c0000000000000000000000000000000000000000000000cb
:20c3720001030c00000000000000000000000000000000000000000000000000000000009b
:20c3920000000000000000000000000000000000000000000000000000000000000000008b
:17c3b200000000000000000000000000000000000000000000000074
:20c3c9000030c0000000000000000000000000000000000000000000000000000000000064
:20c3e900000000000000000000000000000000000000000000000000000000000000000034
:16c40900000000000000000000000000000000000000000000001d
:20c41f0001030c0000000000000000000000000000000000000000000000000000000000ed
:20c43f000000000000000000000000000000000000000000000000000000000000000000dd
:17c45f000000000000000000000000000000000000000000000000c6
:20c476000030c00000000000000000000000000000000000000000000000000000000000b6
:20c49600000000000000000000000000000000000000001000000000010000000000000075
:16c4b6000000000000000000000000000000000000000000000070
:20c4cc0001030c000000000000000000000000000000000000000000000000000000000040
:20c4ec00000000000000000000000000000000000000000000000000000800000000000028
:17c50c00000000000000000000000000000000000000000000000018
:20c523000030c0000000000000000000000000000000000000000000000000000000000008
:20c5430000000000000000000000000000000000000000000803c00000000000000000000d
:16c5630000000000000000000000000000000000000000000000c2
:20c5790001030c000000000000000000000000000000000000000000000000000000000092
:20c59900000000000000000000000000000000000000000000003c0e000000000000000038
:17c5b900000000000000000a00000000000007000000000000a000ba
:20c5d0000030c000000000000000000000000000000000000000000000000000000000005b
:20c5f00000000000000000000000000000000000000000000000000000000000000000002b
:16c610000000000000000000000000000000000000000000000014
:20c6260001030c0000000000000000000000000000000000000000000000000000000000e4
:20c646000000000000000000000000000000000000000000000000000000000000000000d4
:17c666000000000000000000000000000000000000000000000000bd
:20c67d000030c00000000000000000000000000000000000000000000000000000000000ad
:20c69d0000000000000000000000000000000000000000000000000000000000000000007d
:16c6bd000000000000000000000000000000000000000000000067
:20c6d30001030c000000000000000000000000000000000000000000000000000000000037
:20c6f300000000000000000000000000000000000000000000000000000000000000000027
:17c7130000000000000000000000000000000000000000000000000f
:20c72a000030c00000000000000000000000000000000000000000000000000000000000ff
:20c74a000000000000000000000000000000000000000000000000000000000000000000cf
:16c76a0000000000000000000000000000000000000000000000b9
:20c7800001030c000000000000000000000000000000000000000000000000000000000089
:20c7a000000000000000000000000000000000000000000000000000000000000000000079
:17c7c000000000000000000000000000000000000000000000000062
:20c7d7000030c0000000000000000000000000000000000000000000000000000000000052
:20c7f700000000000000000000000000000000000000000000000000000000000000000022
:16c81700000000000000000000000000000000000000000000000b
:20c82d0001030c0000000000000000000000000000000000000000000000000000000000db
:20c84d000000000000000000000000000000000000000000000000000000000000000000cb
:17c86d000000000000000000000000000000000000000000000000b4
:20c884000030c00000000000000000000000000000000000000000000000000000000000a4
:20c8a400000000000000000000000000000000000000005000000000000000000000000024
:16c8c400000000000000000000000000000000000000000000005e
:20c8da0001030c00000000000000000000000000000000000000000000000000000000002e
:20c8fa0000000000000000000000000000000000000000000000000000000000000000001e
:17c91a00000000000000000000000000000000000000000000000006
:20c931000030c00000000000000000000000000000000000000000000000000000000000f6
:20c951000000000000000000000000000000000000000000000000000000000000000000c6
:16c9710000000000000000000000000000000000000000000000b0
:20c9870001030c000000000000000000000000000000000000000000000000000000000080
:20c9a700000000000000000000000000000000000000000000000000000000000000000070
:17c9c700000000000000000000000000000000000000000000000059
:20c9de000030c0000000000000000000000000000000000000000000000000000000000049
:20c9fe00000000000000000000000000000000000000000000000000000000000000000019
:16ca1e000000000000000000000000000000000000000000000002
:20ca340001030c0000000000000000000000000000000000000000000000000000000000d2
:20ca54000000000000000000000000000000000000000000000000000000000000000000c2
:17ca74000000000000000000000000000000000000000000000000ab
:20ca8b000030c000000000000000000000000000000000000000000000000000000000009b
:20caab0000000000000000000000000000000000000000000000000000000000000000006b
:16cacb000000000000000000000000000000000000000000000055
:20cae10001030c000000000000000000000000000000000000000000000000000000000025
:20cb0100000000000000000000000000000000000000000000000000000000000000000014
:17cb21000000000000000000000000000000000000000000000000fd
:20cb38000030c00000000000000000000000000000000000000000000000000000000000ed
:20cb58000000000000000000000000000000000000000000000000000000000000000000bd
:16cb780000000000000000000000000000000000000000000000a7
:20cb8e0001030c000000000000000000000000000000000000000000000000000000000077
:20cbae00000000000000000000000000000400000000000000000000000000000000000063
:17cbce00000000000000000000000000000000000000000000000050
:20cbe5000030c0000000000000000000000000000000000000000000000000000000000040
:20cc050000000000000000000000000000000000000000000000000000000000000000000f
:16cc25000000000000000000000000000000000000000000008079
:20cc3b0001030c0000000000000000000000000000000000000000000000000000000000c9
:20cc5b000000000000000000000000000000000000000000000000000000000000000000b9
:17cc7b000000000000000000000000000000000000000000000000a2
:20cc92000030c0000000000000000000000000000000000000000000000000000000000092
:20ccb200000000000000000000000000000000000000000000000000000000000000000062
:16ccd200000000000000000000000000000000000000000000004c
:20cce80001030c00000000000000000000000000000000000000000000000000000000001c
:20cd08000000000000000000000000000000000000000000500000000000000000000000bb
:17cd28000000000000000000000000000000000000000000000000f4
:20cd3f000030c00000000000000000000000000000000000000000000000000000000000e4
:20cd5f000000000000000000000000000000000000000000000000000000000000000000b4
:16cd7f00000000000000000000000000000000000000000000009e
:20cd950001030c00000000000000000000000000000000000000000000000000000000006e
:20cdb50000000000000000000000000000000000000000000000000000000000000000005e
:17cdd500000000000000000000000000000000000000000000000047
:20cdec00000000000000000000000000000000000000000000000000000000000000000027
:20ce0c00000000000000000000000000000000000000000000000000000000000000000006
:16ce2c0000000000000000000000000000000000000000000000f0
:20ce42000000000000000000000000000000000000000000000000000000000000000000d0
:20ce62000000000000000000000000000000000000000000000000000000000000000000b0
:17ce8200000000000000000000000000000000000000000000000099
:20ce9900000000000000000000000000000000000000000000000000000000000000000079
:20ceb900000000000000000000000000000000000000000000000000000000000000000059
:16ced9000000000000000000000000000000000000000000000043
:20ceef00000000000000000000000000000000000000000000000000000000000000000023
:20cf0f00000000000000000000000000000000000000000000000000000000000000000002
:17cf2f000000000000000000000000000000000000000000000000eb
:20cf46000000000000000000000000000000000000000000000000000000000000000000cb
:20cf66000000000000000000000000000000000000000000000000000000000000000000ab
:16cf86000000000000000000000000000000000000000000000095
:20cf9c00000000000000000000000000000000000000000000000000000000000000000075
:20cfbc00000000000000000000000000000000000000000000000000000000000000000055
:17cfdc0000000000000000000000000000000000000000000000003e
:20cff30000000000000000000000000000000000000000000000000000000000000000001e
:20d013000000000000000000000000000000000000000000000000000000000000000000fd
:16d03300008000000000000200000000000008000000000000203d
:20d049000000000000000000000000000000000000000000000000000000000000000000c7
:20d069000000000000000000000000000000000000000000000000000000000000000000a7
:17d08900000000000000000000000000000000000000000000000090
:20d0a000000000000000000000000000000000000000000000000000000000000000000070
:16d44100000000000000001c0000000000000000000000000000b9
:20d457000000000000000000000000000000000000000000000000000000000000000000b5
:20d47700000000000000000000000000000000000000000000000000000000000000000095
:17d4970000000000000000000000000000000000000000000000007e
:20d4ae0000000000000000000000000000000000000000000000000000000000000000005e
:20d4ce0000000000000000000000000000000000000000000000000000000000000000003e
:16d4ee000000000000000000000000000000000000000000000028
:20d50400000000000000000000000000000000000000000000000000000000000000000007
:20d524000000000000000000000000000000000000000000000000000000000000000000e7
:17d544000000000000000000000000000000000000000000000000d0
:20d55b000000000000000000000000000000000000000000000000000000000000000000b0
:20d57b00000000000000000000000000000000000000000000000000000000000000000090
:16d59b00000000000000000000000000000000000000000000007a
:20d5b10000000000000000000000000000000000000000000000000000000000000000005a
:20d5d10000000000000000000000000000000000000000000000000000000000000000003a
:17d5f100000000000000000000000000000000000000000000000023
:20d60800000000000000000000000000000000000000000000000000000000000000000002
:20d628000000000000000000000000000000000000000000000000000000000000000000e2
:16d6480000000000000000000000000000000000000000000000cc
:20d65e000000000000000000000000000000000000000000000000000000000000000000ac
:20d67e0000000000000000000000000000000000000000000000000000000000000000008c
:17d69e00000000000000000000000000000000000000000000000075
:20d6b500000000000000000000000000000000000000000000000000000000000000000055
:20d6d500000000000000000000000000000000000000000000000000000000000000000035
:16d6f5000000000000000000000000000000000000000000008897
:20d70b000000000000000000000000000000000000000000000000000000000000000000fe
:20d72b000000000000000000000000000000000000000000000000000000000000000000de
:17d74b00000000000000000000000000000000000000000000004087
:20d762000000000000000000000000000000000000000000000000000000000000000000a7
:20d78200000000000000000000000000000000000000000000000000000000000000000087
:16d7a2000000000000000000000000000000000000000000000071
:20d7b800000000000000000000000000000000000000000000000000000000000000000051
:16dc5d000000000000000018000000000000000000000000018018
:20dc7300000000000000000000000000000000000000000000000000000000000000000091
:20dc9300000000000000000000000000000000000000000000000000000000000000000071
:17dcb3008000000000000000000000000000000000000000000000da
:20dcca0000000000000000000000000000000000000000000000000000000000000000003a
:20dcea0000000000000000000000000000000000000000000000000000000000000000001a
:16dd0a0000000000000000000000000000002000000000000000e3
:20dd20000000000000000000000000000000000000000000000000000000000000000000e3
:20dd40000000000000000000000000000000000000000000000000000000000000000000c3
:17dd60000000000000000000000000000000000000000000000000ac
:20dd770000000000000000000000000000000000000000000000000000000000000000008c
:20dd970000000000000000000000000000000000000000000000000000000000000000006c
:16ddb7000000000000000000000000000000000000000000000056
:20ddcd00000000000000000000000000000000000000000000000000000000000000000036
:20dded00000000000000000000000000000000000000000000000000000000000000000016
:17de0d000000000000000000000000000000000000000000000000fe
:20de24000000000000000000000000000000000000000000000000000000000000000000de
:20de44000000000000000000000000000000000000000000000000000000000045fd30004c
:16de64000000000000001000000000000200003002a80e000000ae
:20de7a00000000000000000000000000000000000000000000000000000000000000000088
:20de9a0000000000000000000000000000000000000000000000000000000000028b3a00a1
:17deba0000000000000001800000000001c7000300295dc0000000bf
:20ded100000000000000000000000000000000000000000000000000000000000000000031
:20def100000000000000000000000000000000000000000000000000000000000000000011
:16df11000000401f56e00840000000000000000000000000d40049
:20df27000000000000000000000000000000000000000000000000000000000000000000da
:20df47000000000000000000000000000000000000000000000000000000000000000000ba
:17df670000004000f56f10000000000000000000000000001aa00035
:20df7e00000000000000000000000000000000000000000000000000000000000000000083
:20df9e00000000000000000000000000000000000000001000000000000000000000000251
:16dfbe004000000000000f00000000000000000000000000d0002e
:20dfd40000000000000000000000000000000000000000000000000000000000000000002d
:20dff40000000000000000000000000000000000000000000000000000000000000000000d
:17e014000400000000000000000000000000000000000000000000f1
:20e02b000000000000000000000000000000000000000000000000000000000000000000d5
:20e04b000000000000000000000000000000000000000000000000000000000000000004b1
:16e06b00000000000000000000000000000000000000000000009f
:20e0810000000000000000000000000000000000000000000000000000000000000000007f
:20e0a10000000000000000000000000000000000000000000000000000000000000000005f
:17e0c100600000000000018000000000000600000000000000000061
:20e0d800000000000000000000000000000000000000000000000000000000000000000028
:20e0f800000000000000000000000000008000000000004000000000000000000000000048
:16e118000000003e81a90b000100050b003000000000000000003d
:20e12e000000000000000000000000000000000000000000000000000000000000000000d1
:20e14e000000000000000000000000000000000000000000000000000000000000000000b1
:17e16e000000001bfc6e801000000af7e000000000000000000000a4
:20e1850000000000000000000000000000000000000000000000000000000000000000007a
:20e1a500000000000000000000000000000000000000000000000000000000000000014019
:16e1c5000000000000001e4000005503c2000000000000000000cc
:20e1db00000000000000000000000000000000000000000000000000000000000000000024
:20e1fb00000000000000000000000000000000000000000000000000000000000000000004
:17e21b00000000000000008800200a536c4000000000000000082013
:20e232000000000000000000000000000000000000000000000000000000000000000000cc
:20e252000000000000000000000000000000000000000000000000000000000000000000ac
:16e272000000001683cb0d0000010f0800300000000000000000dd
:20e28800000000000000000000000000000000000000000000000000000000000000000076
:20e2a800000000000000000000000000000000000000000000000000000000000000000056
:17e2c8000000401940588010010020f50000000400000000000000a4
:20e2df0000000000000000000000000000000000000000000000000000000000000000001f
:20e2ff000000000000000000000000000000000000000000000000000000000000000003fc
:16e31f0080000017c0c500000000000000000000000000000000cc
:20e335000000000000000000000000000000000000000000000000000000000000000000c8
:20e355000000000000000000000000000000000000000000000000000000000000000000a8
:17e3750000001000156901a000400000000000000000000000000022
:20e38c00000000000000000000000000000000000000000000000000000000000000000071
:20e3ac00000000000000000000000000000000000000000000000000000000000fb06fc360
:16e3cc000002000803b0100008000000024000300381c900c000e7
:20e3e20000000000000000000000000000000000000000000000000000000000000000001b
:20e4020000000000000000000000000000000000000000000000000000000000c0ff1b60c0
:17e4220004023100c1ca00e000c0000000470003003566e0010000bb
:20e439000000000000000000000000000000000000000000000000000000000000000000c3
:20e459000000000000000000000000000000000000000000000000000000001805f0b7c01f
:16e479000000000001c50000000000000000000001183c00004032
:20e48f0000000000000000000000000000000000000000000000000000000000000000006d
:20e4af000000000000000000000000000000000000000000000000000000000000af7840e6
:17e4cf000000010100ce9800000000000007800010020eb00e000069
:20e4e600000000000000000000000000000000000000000000000000000000000000000016
:20e50600000000000000000000000000000000000000000000000000000000000af07e423b
:16e526004000603e80090e000000ff034000000002e8dcb1f000c1
:20e53c000000000000000000000000000000000000000000000000000000000000000000bf
:20e55c000000000000000000000000000000000000000800000000000000000000af1b606d
:17e57c0000000203e9fa80000010c5a020001000001e8ed99e000058
:20e59300000000000000000000000000000000000000000000000000000000000000000068
:20e5b3000000000000000000000000000000000000000000000000000000000005f074409f
:16e5d3000000003def850d00000000000200000000aaea5180000d
:20e5e900000000000000000000000000000000000000000000000000000000000000000012
:20e609000000000000000000000000020000000000000000000000000000000000af5a20c6
:17e62900000000026d6981900000000000600000001ea4a01c000013
:20e640000000000000000000000000000000000000000000000000000000000000000000ba
:20e66000000000000000000000000000000000000000000000000000000000000af07f42df
:16e680008000001017b5980000010f0000000004016019080000fa
:20e69600000000000000000000000000000000000000000000000000000000000000000064
:20e6b6000000000000000000000000000000000000000002000000000000000000af1b2058
:17e6d60000000000015d39d1002060f70000000010010da50000008b
:20e6ed0000000000000000000000000000000000000000000000000000000000000000000d
:20e70d00000000000000000000000000000000000000000000000000000400091c3b200068
:16e72d000000002341810b00000000000000000001540e70a20071
:20e743000000000000000000000000000000000000000000000000000000000000000000b6
:20e763000000000000000000000000000000000000000000000000000000a00006837a40b3
:17e78300000001033d6fd0000000000000000000002955e808400051
:20e79a0000000000000000000000000000000000000000000000000000000000000000005f
:20e7ba0000000000000000000000000000000000000000000000000000000000000000023d
:16e7da008000422bc20009000000db00003c0000000000008000da
:20e7f000000000000000000000000000000000000000000000000000000000000000000009
:20e810000000000000000000000000000000000000000000000000000000000000000000e8
:17e8300000004802bd68001001040810200000040000000001000010
:20e847000000000000000000000000000000000000000000000000000000000000000000b1
:20e86700000000000000000000000000000000000000000000000000000000000000002071
:16e887001000007e82801800000008fe0036800000000000000017
:20e89d0000000000000000000000000000000000000000000000000000000000000000005b
:20e8bd00000000000000000000000000000000000000000000000000000000000000000437
:17e8dd006a00000829c959d20000058934605000000000050000001e
:20e8f400000000000000000000000000000000000000000000000000000000000000000004
:20e91400000000000000000000000000000000000000000000000000f0e00000000000040f
:16e934000003003ddcf1080088000000140000000000000000001c
:20e94a0080000000000000000000000000000000000000000000000000000000000000002d
:20e96a00000000000000000000000000000000000000000000000000080100000000000084
:17e98a0038003003ef60801014c000000360000000000000000008ed
:20e9a100000000000000000000000000000000000000000000000000000000000000000056
:20e9c100000000000000000000000000000000000000000000000000000000000000000234
:16e9e10000000143c201000000805f0404028000000000000000b0
:20e9f700000000000000000000000000000000000000000000000000000000000000000000
:20ea17000000000000000000000000000000000000000000000000000000000000000000df
:17ea3700000000083cc08000000805f5236690000000000000000029
:20ea4e000000000000000000000000000000000000000000000000000000000000000000a8
:20ea6e00000000000000000000000000000000000000000000000000000000000000000286
:16ea8e000000802bc1c01f000000ca003400000000000000000029
:20eaa400000000000000000000000000000000000000000000000000000000000000000052
:20eac400000000000000000000000000000000000000000000000000000000000000000032
:17eae400040000083d6b508000040c530146000000000000000000ed
:20eafb000000000000000000000000000000000000000000000000000000000000000000fb
:20eb1b00000000000000000000000000000000000000000000017c30d00000091aa070002a
:16eb3b000500001683850000000002de94680000000000000000c5
:20eb51000000000000000000000000000000000000000000000000000000000000000000a4
:20eb71000000000000000000000000000000000000000000000017d7e0001800820f12de1d
:17eb91000000020abd5d580000000007a46380000000000000000061
:20eba80000000000000000000000000000000000000000000000000000000000000000004d
:20ebc80000000000000000000000000000000000000000000002bc1eb000000806994004b6
:16ebe8000000243ede00000080000a0fc2410002043c00010000f8
:20ebfe000000000000000000000000000000000000000000000000000000000000000000f7
:20ec1e00000000000000000000000000000000000000000000012bc6d00000000169160094
:17ec3e0028000003ee5a018014000003384220000283d6001a0000a5
:20ec550000000000000000000000000000000000000000000000000000000000000000009f
:20ec7500000000000000000000000000000000000000000000000000000000018695036000
:16ec9500050020168293000100802e0f422a0000000000000000ef
:20ecab00000000000000000000000000000000000000000000000000000000000000000049
:20eccb00000000000000000000000000000000000000000000000000000000000569939494
:17eceb000000000bd548f000140420a375400040000000000000002a
:20ed02000000000000000000000000000000000000000000000000000000000000000000f1
:20ed220000000000000000000000000000000000000000000000000000a1c0008691014612
:16ed4200c0000014c08008000000c70a0000002000000000f000be
:20ed580000000000000000000000000000000000000000000000000000000000000000009b
:20ed7800000000000000000000000000000000000000000000000000000100000969962052
:17ed9800303041028d6101d001040e71380000140000000000001022
:20edaf00000000000000000000000000000000000000000000000000000000000000000044
:20edcf0000000000000000000000000000000000000000000000000000000000000d4000d7
:16edef001000002d6e911000000085d3dc40020046940001000071
:20ee05000000000000000000000000000000000000000000000000000000000000000000ed
:20ee2500000000000000000000000000000000000000000000000000000000000100031eab
:17ee450000800003fdfe81c0000000abb542805100a940800e00000d
:02ee5c000000b4
:03ee5e0062004f00
:03ee6100720080bc
:02ee640011009b
:03ee660082000027
:02ee69000103a3
:0aee6b00000000000000000000009d
:0aee75000000000000000000000093
:0aee7f000000000000000000000089
:0aee8900000000000000000000007f
:02f36b000000a0
:03f36d008200809b
:02f37000010397
:0af372000000000000000000000091
:0af37c000000000000000000000087
:0af38600000000000000000000007d
:0af390000000000000000000000073
:02f87200000094
:02f87400110180
:03f876008200000d
:02f87900010389
:0af87b000000000000000000000083
:0af885000000000000000000000079
:0af88f00000000000000000000006f
:0af899000000000000000000000065
:02fd7b00000086
:03fd7d0082008081
:02fd800001037d
:0afd82000000000000000000000077
:0afd8c00000000000000000000006d
:0afd96000000000000000000000063
:0afda0000000000000000000000059
:020000040001f9
:020000000000fe
:0a00020000000000000000000000f4
:0a000c0000000000000000000000ea
:0a00160000000000000000000000e0
:0a00200000000000000000000000d6
:0202820000007a
:02028400110265
:03028600820000f3
:0202890001036f
:0a028b000000000000000000000069
:0a029500000000000000000000005f
:0a029f000000000000000000000055
:0a02a900000000000000000000004b
:02078b0000006c
:03078d0082008067
:02079000010363
:0a079200000000000000000000005d
:0a079c000000000000000000000053
:0a07a6000000000000000000000049
:0a07b000000000000000000000003f
:020c9200000060
:020c940011034a
:030c9600820000d9
:020c9900010355
:0a0c9b00000000000000000000004f
:0a0ca5000000000000000000000045
:0a0caf00000000000000000000003b
:0a0cb9000000000000000000000031
:02119b00000052
:03119d008200804d
:0211a000010349
:0a11a2000000000000000000000043
:0a11ac000000000000000000000039
:0a11b600000000000000000000002f
:0a11c0000000000000000000000025
:0216a200000046
:0116a4002223
:0216a50055de10
:0216a70001063a
:00000001FF
